{"abi":[{"type":"constructor","inputs":[{"name":"_credenceToken","type":"address","internalType":"address"}],"stateMutability":"nonpayable"},{"type":"function","name":"createProposal","inputs":[{"name":"_title","type":"string","internalType":"string"},{"name":"_description","type":"string","internalType":"string"}],"outputs":[],"stateMutability":"nonpayable"},{"type":"function","name":"credenceToken","inputs":[],"outputs":[{"name":"","type":"address","internalType":"contract CredenceToken"}],"stateMutability":"view"},{"type":"function","name":"executeProposal","inputs":[{"name":"_proposalId","type":"uint256","internalType":"uint256"}],"outputs":[],"stateMutability":"nonpayable"},{"type":"function","name":"getProposal","inputs":[{"name":"_proposalId","type":"uint256","internalType":"uint256"}],"outputs":[{"name":"id","type":"uint256","internalType":"uint256"},{"name":"title","type":"string","internalType":"string"},{"name":"description","type":"string","internalType":"string"},{"name":"votesFor","type":"uint256","internalType":"uint256"},{"name":"votesAgainst","type":"uint256","internalType":"uint256"},{"name":"startTime","type":"uint256","internalType":"uint256"},{"name":"endTime","type":"uint256","internalType":"uint256"},{"name":"executed","type":"bool","internalType":"bool"}],"stateMutability":"view"},{"type":"function","name":"minimumTokensToPropose","inputs":[],"outputs":[{"name":"","type":"uint256","internalType":"uint256"}],"stateMutability":"view"},{"type":"function","name":"nextProposalId","inputs":[],"outputs":[{"name":"","type":"uint256","internalType":"uint256"}],"stateMutability":"view"},{"type":"function","name":"owner","inputs":[],"outputs":[{"name":"","type":"address","internalType":"address"}],"stateMutability":"view"},{"type":"function","name":"proposals","inputs":[{"name":"","type":"uint256","internalType":"uint256"}],"outputs":[{"name":"id","type":"uint256","internalType":"uint256"},{"name":"title","type":"string","internalType":"string"},{"name":"description","type":"string","internalType":"string"},{"name":"votesFor","type":"uint256","internalType":"uint256"},{"name":"votesAgainst","type":"uint256","internalType":"uint256"},{"name":"startTime","type":"uint256","internalType":"uint256"},{"name":"endTime","type":"uint256","internalType":"uint256"},{"name":"executed","type":"bool","internalType":"bool"}],"stateMutability":"view"},{"type":"function","name":"renounceOwnership","inputs":[],"outputs":[],"stateMutability":"nonpayable"},{"type":"function","name":"transferOwnership","inputs":[{"name":"newOwner","type":"address","internalType":"address"}],"outputs":[],"stateMutability":"nonpayable"},{"type":"function","name":"vote","inputs":[{"name":"_proposalId","type":"uint256","internalType":"uint256"},{"name":"_support","type":"bool","internalType":"bool"}],"outputs":[],"stateMutability":"nonpayable"},{"type":"function","name":"votingDuration","inputs":[],"outputs":[{"name":"","type":"uint256","internalType":"uint256"}],"stateMutability":"view"},{"type":"event","name":"OwnershipTransferred","inputs":[{"name":"previousOwner","type":"address","indexed":true,"internalType":"address"},{"name":"newOwner","type":"address","indexed":true,"internalType":"address"}],"anonymous":false},{"type":"event","name":"ProposalCreated","inputs":[{"name":"proposalId","type":"uint256","indexed":true,"internalType":"uint256"},{"name":"title","type":"string","indexed":false,"internalType":"string"},{"name":"proposer","type":"address","indexed":false,"internalType":"address"}],"anonymous":false},{"type":"event","name":"ProposalExecuted","inputs":[{"name":"proposalId","type":"uint256","indexed":true,"internalType":"uint256"}],"anonymous":false},{"type":"event","name":"VoteCast","inputs":[{"name":"proposalId","type":"uint256","indexed":true,"internalType":"uint256"},{"name":"voter","type":"address","indexed":false,"internalType":"address"},{"name":"support","type":"bool","indexed":false,"internalType":"bool"},{"name":"weight","type":"uint256","indexed":false,"internalType":"uint256"}],"anonymous":false},{"type":"error","name":"OwnableInvalidOwner","inputs":[{"name":"owner","type":"address","internalType":"address"}]},{"type":"error","name":"OwnableUnauthorizedAccount","inputs":[{"name":"account","type":"address","internalType":"address"}]}],"bytecode":{"object":"0x6080346100e757601f610d6f38819003918201601f19168301916001600160401b038311848410176100eb578084926020946040528339810103126100e757516001600160a01b038116908190036100e75733156100d4575f8054336001600160a01b0319821681178355604051939290916001600160a01b0316907f8be0079c531659141344cd1fd0a4f28419497f9722a3daafe3b4186f6b6457e09080a3600160025562093a80600355683635c9adc5dea0000060045560018060a01b03196001541617600155610c6f90816101008239f35b631e4fbdf760e01b5f525f60045260245ffd5b5f80fd5b634e487b7160e01b5f52604160045260245ffdfe60806040526004361015610011575f80fd5b5f3560e01c8063013cf08b146109d95780630d61b519146108af578063132002fc146108925780632245350f146108755780632ab09d1414610858578063598af9d51461083057806365e481e214610451578063715018a6146103fa5780638da5cb5b146103d3578063c7f758a814610369578063c9d27afe1461012a5763f2fde38b1461009d575f80fd5b34610126576020366003190112610126576004356001600160a01b03811690819003610126576100cb610c13565b8015610113575f80546001600160a01b03198116831782556001600160a01b0316907f8be0079c531659141344cd1fd0a4f28419497f9722a3daafe3b4186f6b6457e09080a3005b631e4fbdf760e01b5f525f60045260245ffd5b5f80fd5b346101265760403660031901126101265760043560243580151580820361012657825f52600560205260405f20906005820154421061032f57600682015442116102fb57600882019160018060a01b0333165f528260205260ff60405f2054166102c6576001546040516370a0823160e01b81523360048201529190602090839060249082906001600160a01b03165afa9182156102bb575f92610287575b50811561025057335f9081526020949094526040909320805460ff191660011790557fcbdf6214089cba887ecbf35a0b6a734589959c9763342c756bb2a80ca2bc9f6e93606093901561023b57600301610224828254610c06565b90555b6040519133835260208301526040820152a2005b600401610249828254610c06565b9055610227565b60405162461bcd60e51b815260206004820152600f60248201526e2737903b37ba34b733903837bbb2b960891b6044820152606490fd5b9091506020813d6020116102b3575b816102a360209383610a79565b81010312610126575190866101c9565b3d9150610296565b6040513d5f823e3d90fd5b60405162461bcd60e51b815260206004820152600d60248201526c105b1c9958591e481d9bdd1959609a1b6044820152606490fd5b60405162461bcd60e51b815260206004820152600c60248201526b159bdd1a5b99c8195b99195960a21b6044820152606490fd5b60405162461bcd60e51b8152602060048201526012602482015271159bdd1a5b99c81b9bdd081cdd185c9d195960721b6044820152606490fd5b34610126576020366003190112610126576004355f52600560205260405f2080546103cf60038301546004840154600585015460068601549160ff600788015416936103c360026103bc60018b01610a9b565b9901610a9b565b60405198899889610b5f565b0390f35b34610126575f366003190112610126575f546040516001600160a01b039091168152602090f35b34610126575f36600319011261012657610412610c13565b5f80546001600160a01b0319811682556001600160a01b03167f8be0079c531659141344cd1fd0a4f28419497f9722a3daafe3b4186f6b6457e08280a3005b346101265760403660031901126101265760043567ffffffffffffffff811161012657610482903690600401610bb0565b60243567ffffffffffffffff8111610126576104a2903690600401610bb0565b6001546040516370a0823160e01b815233600482015291929190602090829060249082906001600160a01b03165afa9081156102bb575f916107fe575b50600454116107c357600254915f1983146107af5760018301600255825f52600560205260405f209083825560018201835167ffffffffffffffff81116106ea5761052a8254610a41565b601f811161076a575b50806020601f8211600114610709575f916106fe575b508160011b915f199060031b1c19161790555b8051600283019167ffffffffffffffff82116106ea5761057c8354610a41565b601f81116106a5575b50602090601f831160011461061b5791807fc8c078bfee58e5822588f08b4509ed1eb5058e03f666cca84dd2d44bf5c288a896949261060596945f92610610575b50508160011b915f199060031b1c19161790555b42600582015560066105ee60035442610c06565b910155604051918291604083526040830190610b3b565b3360208301520390a2005b0151905088806105c6565b90601f19831691845f52815f20925f5b81811061068d575092600192859261060598967fc8c078bfee58e5822588f08b4509ed1eb5058e03f666cca84dd2d44bf5c288a89a989610610675575b505050811b0190556105da565b01515f1960f88460031b161c19169055888080610668565b9293602060018192878601518155019501930161062b565b835f5260205f20601f840160051c810191602085106106e0575b601f0160051c01905b8181106106d55750610585565b5f81556001016106c8565b90915081906106bf565b634e487b7160e01b5f52604160045260245ffd5b905085015187610549565b5f8481528181209250601f198416905b8181106107525750908360019493921061073a575b5050811b01905561055c565b8701515f1960f88460031b161c19169055878061072e565b9192602060018192868c015181550194019201610719565b825f5260205f20601f830160051c810191602084106107a5575b601f0160051c01905b81811061079a5750610533565b5f815560010161078d565b9091508190610784565b634e487b7160e01b5f52601160045260245ffd5b60405162461bcd60e51b8152602060048201526013602482015272496e73756666696369656e7420746f6b656e7360681b6044820152606490fd5b90506020813d602011610828575b8161081960209383610a79565b810103126101265751836104df565b3d915061080c565b34610126575f366003190112610126576001546040516001600160a01b039091168152602090f35b34610126575f366003190112610126576020600254604051908152f35b34610126575f366003190112610126576020600454604051908152f35b34610126575f366003190112610126576020600354604051908152f35b34610126576020366003190112610126576004356108cb610c13565b805f52600560205260405f2060068101544211156109a157600781019081549060ff8216610969576004600382015491015410156109325760ff191660011790557f712ae1383f79ac853f8d882153778e0260ef8f03b504e2866e0593e04d2b291f5f80a2005b60405162461bcd60e51b815260206004820152600f60248201526e141c9bdc1bdcd85b0819985a5b1959608a1b6044820152606490fd5b60405162461bcd60e51b815260206004820152601060248201526f105b1c9958591e48195e1958dd5d195960821b6044820152606490fd5b60405162461bcd60e51b815260206004820152601060248201526f159bdd1a5b99c81b9bdd08195b99195960821b6044820152606490fd5b34610126576020366003190112610126576004355f52600560205260405f2080546103cf610a0960018401610a9b565b92610a1660028201610a9b565b906003810154600482015460058301549160ff60076006860154950154169460405198899889610b5f565b90600182811c92168015610a6f575b6020831014610a5b57565b634e487b7160e01b5f52602260045260245ffd5b91607f1691610a50565b90601f8019910116810190811067ffffffffffffffff8211176106ea57604052565b9060405191825f825492610aae84610a41565b8084529360018116908115610b195750600114610ad5575b50610ad392500383610a79565b565b90505f9291925260205f20905f915b818310610afd575050906020610ad3928201015f610ac6565b6020919350806001915483858901015201910190918492610ae4565b905060209250610ad394915060ff191682840152151560051b8201015f610ac6565b805180835260209291819084018484015e5f828201840152601f01601f1916010190565b96939897949192610b8660e09794610b94938a5261010060208b01526101008a0190610b3b565b9088820360408a0152610b3b565b976060870152608086015260a085015260c08401521515910152565b81601f820112156101265780359067ffffffffffffffff82116106ea5760405192610be5601f8401601f191660200185610a79565b8284526020838301011161012657815f926020809301838601378301015290565b919082018092116107af57565b5f546001600160a01b03163303610c2657565b63118cdaa760e01b5f523360045260245ffdfea2646970667358221220da0e78e27293cc8a148d477310bcfd971cd92f750fe8faf212178b9e43e3c3cd64736f6c634300081c0033","linkReferences":{}},"methodIdentifiers":{"createProposal(string,string)":"65e481e2","credenceToken()":"598af9d5","executeProposal(uint256)":"0d61b519","getProposal(uint256)":"c7f758a8","minimumTokensToPropose()":"2245350f","nextProposalId()":"2ab09d14","owner()":"8da5cb5b","proposals(uint256)":"013cf08b","renounceOwnership()":"715018a6","transferOwnership(address)":"f2fde38b","vote(uint256,bool)":"c9d27afe","votingDuration()":"132002fc"},"id":27}