{"abi":[{"type":"constructor","inputs":[],"stateMutability":"nonpayable"},{"type":"function","name":"allBlobIds","inputs":[{"name":"","type":"uint256","internalType":"uint256"}],"outputs":[{"name":"","type":"string","internalType":"string"}],"stateMutability":"view"},{"type":"function","name":"batchStoreData","inputs":[{"name":"_blobIds","type":"string[]","internalType":"string[]"},{"name":"_dataTypes","type":"string[]","internalType":"string[]"},{"name":"_pollIds","type":"uint256[]","internalType":"uint256[]"}],"outputs":[],"stateMutability":"nonpayable"},{"type":"function","name":"dataByType","inputs":[{"name":"","type":"string","internalType":"string"},{"name":"","type":"uint256","internalType":"uint256"}],"outputs":[{"name":"","type":"string","internalType":"string"}],"stateMutability":"view"},{"type":"function","name":"getAllBlobIds","inputs":[],"outputs":[{"name":"","type":"string[]","internalType":"string[]"}],"stateMutability":"view"},{"type":"function","name":"getBlobCount","inputs":[],"outputs":[{"name":"","type":"uint256","internalType":"uint256"}],"stateMutability":"view"},{"type":"function","name":"getBlobCountByType","inputs":[{"name":"_dataType","type":"string","internalType":"string"}],"outputs":[{"name":"","type":"uint256","internalType":"uint256"}],"stateMutability":"view"},{"type":"function","name":"getDataByType","inputs":[{"name":"_dataType","type":"string","internalType":"string"}],"outputs":[{"name":"","type":"string[]","internalType":"string[]"}],"stateMutability":"view"},{"type":"function","name":"getPollData","inputs":[{"name":"_pollId","type":"uint256","internalType":"uint256"}],"outputs":[{"name":"","type":"string[]","internalType":"string[]"}],"stateMutability":"view"},{"type":"function","name":"getStoredData","inputs":[{"name":"_blobId","type":"string","internalType":"string"}],"outputs":[{"name":"blobId","type":"string","internalType":"string"},{"name":"uploader","type":"address","internalType":"address"},{"name":"timestamp","type":"uint256","internalType":"uint256"},{"name":"dataType","type":"string","internalType":"string"},{"name":"pollId","type":"uint256","internalType":"uint256"},{"name":"metadataHash","type":"string","internalType":"string"}],"stateMutability":"view"},{"type":"function","name":"getUserUploads","inputs":[{"name":"_user","type":"address","internalType":"address"}],"outputs":[{"name":"","type":"string[]","internalType":"string[]"}],"stateMutability":"view"},{"type":"function","name":"getWeeklyCompetitionData","inputs":[{"name":"_week","type":"uint256","internalType":"uint256"}],"outputs":[{"name":"","type":"string[]","internalType":"string[]"}],"stateMutability":"view"},{"type":"function","name":"owner","inputs":[],"outputs":[{"name":"","type":"address","internalType":"address"}],"stateMutability":"view"},{"type":"function","name":"pollData","inputs":[{"name":"","type":"uint256","internalType":"uint256"},{"name":"","type":"uint256","internalType":"uint256"}],"outputs":[{"name":"","type":"string","internalType":"string"}],"stateMutability":"view"},{"type":"function","name":"removeData","inputs":[{"name":"_blobId","type":"string","internalType":"string"}],"outputs":[],"stateMutability":"nonpayable"},{"type":"function","name":"renounceOwnership","inputs":[],"outputs":[],"stateMutability":"nonpayable"},{"type":"function","name":"storeData","inputs":[{"name":"_blobId","type":"string","internalType":"string"},{"name":"_dataType","type":"string","internalType":"string"}],"outputs":[],"stateMutability":"nonpayable"},{"type":"function","name":"storeDataWithMetadata","inputs":[{"name":"_blobId","type":"string","internalType":"string"},{"name":"_dataType","type":"string","internalType":"string"},{"name":"_pollId","type":"uint256","internalType":"uint256"},{"name":"_metadataHash","type":"string","internalType":"string"}],"outputs":[],"stateMutability":"nonpayable"},{"type":"function","name":"storeDataWithPoll","inputs":[{"name":"_blobId","type":"string","internalType":"string"},{"name":"_dataType","type":"string","internalType":"string"},{"name":"_pollId","type":"uint256","internalType":"uint256"}],"outputs":[],"stateMutability":"nonpayable"},{"type":"function","name":"storedData","inputs":[{"name":"","type":"string","internalType":"string"}],"outputs":[{"name":"blobId","type":"string","internalType":"string"},{"name":"uploader","type":"address","internalType":"address"},{"name":"timestamp","type":"uint256","internalType":"uint256"},{"name":"dataType","type":"string","internalType":"string"},{"name":"exists","type":"bool","internalType":"bool"},{"name":"pollId","type":"uint256","internalType":"uint256"},{"name":"metadataHash","type":"string","internalType":"string"}],"stateMutability":"view"},{"type":"function","name":"transferOwnership","inputs":[{"name":"newOwner","type":"address","internalType":"address"}],"outputs":[],"stateMutability":"nonpayable"},{"type":"function","name":"updateMetadata","inputs":[{"name":"_blobId","type":"string","internalType":"string"},{"name":"_metadataHash","type":"string","internalType":"string"}],"outputs":[],"stateMutability":"nonpayable"},{"type":"function","name":"userUploads","inputs":[{"name":"","type":"address","internalType":"address"},{"name":"","type":"uint256","internalType":"uint256"}],"outputs":[{"name":"","type":"string","internalType":"string"}],"stateMutability":"view"},{"type":"function","name":"weeklyCompetitionData","inputs":[{"name":"","type":"uint256","internalType":"uint256"},{"name":"","type":"uint256","internalType":"uint256"}],"outputs":[{"name":"","type":"string","internalType":"string"}],"stateMutability":"view"},{"type":"event","name":"DataStored","inputs":[{"name":"blobId","type":"string","indexed":true,"internalType":"string"},{"name":"uploader","type":"address","indexed":true,"internalType":"address"},{"name":"dataType","type":"string","indexed":false,"internalType":"string"},{"name":"timestamp","type":"uint256","indexed":false,"internalType":"uint256"},{"name":"pollId","type":"uint256","indexed":false,"internalType":"uint256"}],"anonymous":false},{"type":"event","name":"MetadataUpdated","inputs":[{"name":"blobId","type":"string","indexed":true,"internalType":"string"},{"name":"metadataHash","type":"string","indexed":false,"internalType":"string"}],"anonymous":false},{"type":"event","name":"OwnershipTransferred","inputs":[{"name":"previousOwner","type":"address","indexed":true,"internalType":"address"},{"name":"newOwner","type":"address","indexed":true,"internalType":"address"}],"anonymous":false},{"type":"error","name":"OwnableInvalidOwner","inputs":[{"name":"owner","type":"address","internalType":"address"}]},{"type":"error","name":"OwnableUnauthorizedAccount","inputs":[{"name":"account","type":"address","internalType":"address"}]},{"type":"error","name":"ReentrancyGuardReentrantCall","inputs":[]}],"bytecode":{"object":"0x6080806040523460755733156062575f8054336001600160a01b0319821681178355916001600160a01b03909116907f8be0079c531659141344cd1fd0a4f28419497f9722a3daafe3b4186f6b6457e09080a3600180556117ff908161007a8239f35b631e4fbdf760e01b5f525f60045260245ffd5b5f80fdfe60806040526004361015610011575f80fd5b5f3560e01c8063030d1efe14610f625780631ac7722114610eb15780632e2b293914610e7d57806332b011d914610dd6578063405780c814610d55578063407bed6d14610cd9578063412bd34814610c505780634ece5b4c146109ae57806356ce0e6c146108915780635dfb7c63146107b15780636e8194df14610736578063715018a6146106df5780638da5cb5b146106b85780639162b1ad14610684578063a038e93514610615578063a4c7f7371461058a578063bc215a8e1461050f578063c26111111461048d578063cc140ba414610438578063e1c0375f1461041b578063f2fde38b14610396578063f92959f0146102475763fca379ec14610116575f80fd5b34610243576060366003190112610243576004356001600160401b03811161024357610146903690600401611261565b6024356001600160401b03811161024357610165903690600401611261565b604435916001600160401b0383116102435736602384011215610243578260040135926101918461124a565b9361019f6040519586611040565b8085526024602086019160051b8301019136831161024357602401905b828210610233575050506101d38151835114611499565b6101e08151845114611499565b60205f5b8251811015610231578061022b6101fd600193866114dd565b5161020883886114dd565b51610213848a6114dd565b5190604051926102238885611040565b5f8452611565565b016101e4565b005b81358152602091820191016101bc565b5f80fd5b34610243576020366003190112610243576004356001600160401b0381116102435761027a610367913690600401611136565b6020604051916102a660ff6004835195858181870198808a835e810160028152030190200154166112df565b604051928391518091835e81016002815203019020610392604051916102cb83611011565b6102d481611061565b835260018101546001600160a01b03166020840190815260028201546040850190815290939061037f9061030a60038501611061565b936060840194855260ff60048201541615156080850152610339600660058301549260a0870193845201611061565b938460c0820152519660018060a01b039051169151945190519460405198899860c08a5260c08a0190611112565b92602089015260408801528682036060880152611112565b91608085015283820360a0850152611112565b0390f35b34610243576020366003190112610243576103af610fae565b6103b76114f1565b6001600160a01b03168015610408575f80546001600160a01b03198116831782556001600160a01b0316907f8be0079c531659141344cd1fd0a4f28419497f9722a3daafe3b4186f6b6457e09080a3005b631e4fbdf760e01b5f525f60045260245ffd5b34610243575f366003190112610243576020600654604051908152f35b34610243576020366003190112610243576004356001600160401b0381116102435760208061046c81933690600401611136565b604051928184925191829101835e8101600581520301902054604051908152f35b34610243576040366003190112610243576004356001600160401b038111610243576104bd903690600401611136565b604051815160243592602091839181908401835e81016005815203019020908154811015610243576104f56104fb9161039293610fc4565b90611101565b604051918291602083526020830190611112565b34610243576020366003190112610243576004355f52600460205260405f2080546105398161124a565b916105476040519384611040565b81835260208301905f5260205f205f915b83831061056d576040518061039287826111a1565b60016020819261057c85611061565b815201920192019190610558565b34610243575f366003190112610243576006546105a68161124a565b906105b46040519283611040565b8082526020820160065f527ff652222313e28459528d920b65115c16c04f3efc82aaedc97be59f3f377c0d3f5f915b8383106105f8576040518061039287826111a1565b60016020819261060785611061565b8152019201920191906105e3565b34610243576060366003190112610243576004356001600160401b03811161024357610645903690600401611136565b602435906001600160401b03821161024357610668610231923690600401611136565b9060405191610678602084611040565b5f835260443591611565565b34610243576106923661118b565b905f52600460205260405f20908154811015610243576104f56104fb9161039293610fc4565b34610243575f366003190112610243575f546040516001600160a01b039091168152602090f35b34610243575f366003190112610243576106f76114f1565b5f80546001600160a01b0319811682556001600160a01b03167f8be0079c531659141344cd1fd0a4f28419497f9722a3daafe3b4186f6b6457e08280a3005b34610243576020366003190112610243576004355f52600760205260405f2080546107608161124a565b9161076e6040519384611040565b81835260208301905f5260205f205f915b838310610794576040518061039287826111a1565b6001602081926107a385611061565b81520192019201919061077f565b34610243576020366003190112610243576004356001600160401b038111610243576020806107e761085f933690600401611136565b604051928184925191829101835e8101600281520301902061039261080b82611061565b9160018060a01b036001820154169060028101549061087761082f60038301611061565b9360ff6004840154169461084a600660058601549501611061565b94604051998a9960e08b5260e08b0190611112565b9260208a015260408901528782036060890152611112565b921515608086015260a085015283820360c0850152611112565b346102435761089f36611200565b90604051906108cb60ff6004835194602081818701978089835e810160028152030190200154166112df565b604051600182518085845e82019160028352602081838060a01b0394030190200154163314801561099b575b156109675761094d610962916109488560067f30f5c4b652f95e2a697bda3258896c421eee4f29adce8fe38060f47f7aed91ad966020604051809287518091835e8101600281520301902001611385565b61147d565b92604051918291602083526020830190611112565b0390a2005b60405162461bcd60e51b815260206004820152600c60248201526b155b985d5d1a1bdc9a5e995960a21b6044820152606490fd5b505f546001600160a01b031633146108f7565b34610243576109bc36611200565b906020604051906109cd8183611040565b5f8252825115610c195760405160ff60048551928481818901958087835e81016002815203019020015416610bde57610aba906006848660405193610a1185611011565b818552610a988786013381526040870142815260608801918d8352610a6560808a0195600187528c60a08c01985f8a5260c08d019a8b52604051928391518091835e8101600281520301902099518a611385565b516001890180546001600160a01b0319166001600160a01b03929092169190911790555160028801555160038701611385565b600485019051151560ff80198354169116179055516005840155519101611385565b335f5260038152610ace8360405f20611548565b610ad783611517565b604051610afa848651928481818a01958087835e81016005815203019020611548565b8451902093604094600b838751610b118982611040565b828152016a31b7b6b832ba34ba34b7b760a91b81522014610bc1575b610b368461147d565b7fbdfdaa968ea18ea8ee26cc8162155968e9eb086ffe2e5e75fd2d1bf3c6b51216610b6b875193606085526060850190611112565b9242858201525f888201528033940390a38151610b8457005b610962610bb17f30f5c4b652f95e2a697bda3258896c421eee4f29adce8fe38060f47f7aed91ad9461147d565b9451928284938452830190611112565b62093a8042045f5260078252610bd984865f20611548565b610b2d565b60405162461bcd60e51b81526004810183905260136024820152724461746120616c72656164792065786973747360681b6044820152606490fd5b6064906040519062461bcd60e51b82526004820152601060248201526f109b1bd8881251081c995c5d5a5c995960821b6044820152fd5b34610243576020366003190112610243576001600160a01b03610c71610fae565b165f52600360205260405f208054610c888161124a565b91610c966040519384611040565b81835260208301905f5260205f205f915b838310610cbc576040518061039287826111a1565b600160208192610ccb85611061565b815201920192019190610ca7565b34610243576080366003190112610243576004356001600160401b03811161024357610d09903690600401611136565b6024356001600160401b03811161024357610d28903690600401611136565b606435916001600160401b03831161024357610d4b610231933690600401611136565b9160443591611565565b346102435760203660031901126102435760043560065481101561024357600654811015610dc25760065f527ff652222313e28459528d920b65115c16c04f3efc82aaedc97be59f3f377c0d3f016104fb61039291611061565b634e487b7160e01b5f525f60045260245ffd5b634e487b7160e01b5f52603260045260245ffd5b34610243576020366003190112610243576004356001600160401b038111610243576020610e0981923690600401611136565b604051928184925191829101835e810160058152030190208054610e2c8161124a565b91610e3a6040519384611040565b81835260208301905f5260205f205f915b838310610e60576040518061039287826111a1565b600160208192610e6f85611061565b815201920192019190610e4b565b3461024357610e8b3661118b565b905f52600760205260405f20908154811015610243576104f56104fb9161039293610fc4565b34610243576020366003190112610243576004356001600160401b038111610243576006610ee6610231923690600401611136565b610eee6114f1565b602060405191610f1a60ff6004835195858181870198808a835e810160028152030190200154166112df565b604051928391518091835e81016002815203019020610f3881611337565b5f60018201555f6002820155610f5060038201611337565b5f60048201555f600582015501611337565b3461024357604036600319011261024357610f7b610fae565b6001600160a01b03165f908152600360205260409020805460243590811015610243576104f56104fb9161039293610fc4565b600435906001600160a01b038216820361024357565b8054821015610dc2575f5260205f2001905f90565b90600182811c92168015611007575b6020831014610ff357565b634e487b7160e01b5f52602260045260245ffd5b91607f1691610fe8565b60e081019081106001600160401b0382111761102c57604052565b634e487b7160e01b5f52604160045260245ffd5b90601f801991011681019081106001600160401b0382111761102c57604052565b9060405191825f82549261107484610fd9565b80845293600181169081156110df575060011461109b575b5061109992500383611040565b565b90505f9291925260205f20905f915b8183106110c3575050906020611099928201015f61108c565b60209193508060019154838589010152019101909184926110aa565b90506020925061109994915060ff191682840152151560051b8201015f61108c565b90610daf5761110f90611061565b90565b805180835260209291819084018484015e5f828201840152601f01601f1916010190565b81601f82011215610243578035906001600160401b03821161102c576040519261116a601f8401601f191660200185611040565b8284526020838301011161024357815f926020809301838601378301015290565b6040906003190112610243576004359060243590565b602081016020825282518091526040820191602060408360051b8301019401925f915b8383106111d357505050505090565b90919293946020806111f1600193603f198682030187528951611112565b970193019301919392906111c4565b906040600319830112610243576004356001600160401b038111610243578261122b91600401611136565b91602435906001600160401b0382116102435761110f91600401611136565b6001600160401b03811161102c5760051b60200190565b9080601f830112156102435781356112788161124a565b926112866040519485611040565b81845260208085019260051b820101918383116102435760208201905b8382106112b257505050505090565b81356001600160401b038111610243576020916112d487848094880101611136565b8152019101906112a3565b156112e657565b60405162461bcd60e51b815260206004820152601360248201527211185d1848191bd95cc81b9bdd08195e1a5cdd606a1b6044820152606490fd5b81811061132c575050565b5f8155600101611321565b6113418154610fd9565b908161134b575050565b81601f5f931160011461135c575055565b8183526020832061137891601f0160051c810190600101611321565b8082528160208120915555565b91909182516001600160401b03811161102c576113a28254610fd9565b601f8111611442575b506020601f82116001146113e457819293945f926113d9575b50508160011b915f199060031b1c1916179055565b015190505f806113c4565b601f19821690835f52805f20915f5b81811061142a57509583600195969710611412575b505050811b019055565b01515f1960f88460031b161c191690555f8080611408565b9192602060018192868b0151815501940192016113f3565b61146d90835f5260205f20601f840160051c81019160208510611473575b601f0160051c0190611321565b5f6113ab565b9091508190611460565b602090604051918183925191829101835e81015f815203902090565b156114a057565b60405162461bcd60e51b8152602060048201526015602482015274082e4e4c2f240d8cadccee8d040dad2e6dac2e8c6d605b1b6044820152606490fd5b8051821015610dc25760209160051b010190565b5f546001600160a01b0316330361150457565b63118cdaa760e01b5f523360045260245ffd5b600654600160401b81101561102c5780600161153892016006556006610fc4565b919091610daf5761109991611385565b8054600160401b81101561102c5761153891600182018155610fc4565b9092918151156117915760405160ff6004845192602081818801958087835e8101600281520301902001541661175657611601906006858486610a988a604051966115af88611011565b83885260208801338152610a6560408a019242845260608b01948552602060808c01976001895260a08d01998a5260c08d019a8b52604051928391518091835e8101600281520301902099518a611385565b335f5260036020526116168260405f20611548565b61161f82611517565b60405161164383865192602081818a01958087835e81016005815203019020611548565b8161173c575b8451902093604094600b602087516116618982611040565b828152016a31b7b6b832ba34ba34b7b760a91b8152201461171e575b7fbdfdaa968ea18ea8ee26cc8162155968e9eb086ffe2e5e75fd2d1bf3c6b512166116a78461147d565b916116bc875191606083526060830190611112565b93426020830152878201528033940390a381516116d857505050565b7f30f5c4b652f95e2a697bda3258896c421eee4f29adce8fe38060f47f7aed91ad916117066117199261147d565b9351918291602083526020830190611112565b0390a2565b62093a8042045f52600760205261173783865f20611548565b61167d565b815f5260046020526117518360405f20611548565b611649565b60405162461bcd60e51b81526020600482015260136024820152724461746120616c72656164792065786973747360681b6044820152606490fd5b60405162461bcd60e51b815260206004820152601060248201526f109b1bd8881251081c995c5d5a5c995960821b6044820152606490fdfea26469706673582212209241bf170d258f86e53338991f61de5e667b715b951db8cea7bbfcc3f6ad842264736f6c634300081c0033","linkReferences":{}},"methodIdentifiers":{"allBlobIds(uint256)":"405780c8","batchStoreData(string[],string[],uint256[])":"fca379ec","dataByType(string,uint256)":"c2611111","getAllBlobIds()":"a4c7f737","getBlobCount()":"e1c0375f","getBlobCountByType(string)":"cc140ba4","getDataByType(string)":"32b011d9","getPollData(uint256)":"bc215a8e","getStoredData(string)":"f92959f0","getUserUploads(address)":"412bd348","getWeeklyCompetitionData(uint256)":"6e8194df","owner()":"8da5cb5b","pollData(uint256,uint256)":"9162b1ad","removeData(string)":"1ac77221","renounceOwnership()":"715018a6","storeData(string,string)":"4ece5b4c","storeDataWithMetadata(string,string,uint256,string)":"407bed6d","storeDataWithPoll(string,string,uint256)":"a038e935","storedData(string)":"5dfb7c63","transferOwnership(address)":"f2fde38b","updateMetadata(string,string)":"56ce0e6c","userUploads(address,uint256)":"030d1efe","weeklyCompetitionData(uint256,uint256)":"2e2b2939"},"id":3}