{"abi":[{"type":"constructor","inputs":[{"name":"_identityVerificationHubV2","type":"address","internalType":"address"},{"name":"scopeSeed","type":"uint256","internalType":"uint256"},{"name":"_credenceToken","type":"address","internalType":"address"},{"name":"_walrusStorage","type":"address","internalType":"address"}],"stateMutability":"nonpayable"},{"type":"receive","stateMutability":"payable"},{"type":"function","name":"claimRewards","inputs":[],"outputs":[],"stateMutability":"nonpayable"},{"type":"function","name":"configs","inputs":[{"name":"","type":"uint256","internalType":"uint256"}],"outputs":[{"name":"","type":"bytes32","internalType":"bytes32"}],"stateMutability":"view"},{"type":"function","name":"createPoll","inputs":[{"name":"params","type":"tuple","internalType":"struct CredencePolling.CreatePollParams","components":[{"name":"title","type":"string","internalType":"string"},{"name":"description","type":"string","internalType":"string"},{"name":"category","type":"string","internalType":"string"},{"name":"options","type":"string[]","internalType":"string[]"},{"name":"rewardPerResponse","type":"uint256","internalType":"uint256"},{"name":"targetResponses","type":"uint256","internalType":"uint256"},{"name":"duration","type":"uint256","internalType":"uint256"}]}],"outputs":[],"stateMutability":"payable"},{"type":"function","name":"credenceToken","inputs":[],"outputs":[{"name":"","type":"address","internalType":"contract ICredenceToken"}],"stateMutability":"view"},{"type":"function","name":"currentWeek","inputs":[],"outputs":[{"name":"","type":"uint256","internalType":"uint256"}],"stateMutability":"view"},{"type":"function","name":"emergencyWithdraw","inputs":[],"outputs":[],"stateMutability":"nonpayable"},{"type":"function","name":"getConfigId","inputs":[{"name":"","type":"bytes32","internalType":"bytes32"},{"name":"","type":"bytes32","internalType":"bytes32"},{"name":"userDefinedData","type":"bytes","internalType":"bytes"}],"outputs":[{"name":"","type":"bytes32","internalType":"bytes32"}],"stateMutability":"view"},{"type":"function","name":"getPoll","inputs":[{"name":"_pollId","type":"uint256","internalType":"uint256"}],"outputs":[{"name":"","type":"tuple","internalType":"struct CredencePolling.PollInfo","components":[{"name":"id","type":"uint256","internalType":"uint256"},{"name":"creator","type":"address","internalType":"address"},{"name":"title","type":"string","internalType":"string"},{"name":"description","type":"string","internalType":"string"},{"name":"category","type":"string","internalType":"string"},{"name":"walrusHash","type":"string","internalType":"string"},{"name":"rewardPerResponse","type":"uint256","internalType":"uint256"},{"name":"targetResponses","type":"uint256","internalType":"uint256"},{"name":"currentResponses","type":"uint256","internalType":"uint256"},{"name":"startTime","type":"uint256","internalType":"uint256"},{"name":"endTime","type":"uint256","internalType":"uint256"},{"name":"active","type":"bool","internalType":"bool"}]}],"stateMutability":"view"},{"type":"function","name":"getPollOption","inputs":[{"name":"_pollId","type":"uint256","internalType":"uint256"},{"name":"_optionIndex","type":"uint256","internalType":"uint256"}],"outputs":[{"name":"","type":"string","internalType":"string"}],"stateMutability":"view"},{"type":"function","name":"getPollVotes","inputs":[{"name":"_pollId","type":"uint256","internalType":"uint256"},{"name":"_optionIndex","type":"uint256","internalType":"uint256"}],"outputs":[{"name":"","type":"uint256","internalType":"uint256"}],"stateMutability":"view"},{"type":"function","name":"getWeeklyNominees","inputs":[],"outputs":[{"name":"","type":"address[]","internalType":"address[]"},{"name":"","type":"uint256[]","internalType":"uint256[]"}],"stateMutability":"view"},{"type":"function","name":"globalNullifiers","inputs":[{"name":"","type":"uint256","internalType":"uint256"}],"outputs":[{"name":"","type":"bool","internalType":"bool"}],"stateMutability":"view"},{"type":"function","name":"identityVerificationHubV2","inputs":[],"outputs":[{"name":"","type":"address","internalType":"address"}],"stateMutability":"view"},{"type":"function","name":"isSubscriber","inputs":[{"name":"","type":"address","internalType":"address"}],"outputs":[{"name":"","type":"bool","internalType":"bool"}],"stateMutability":"view"},{"type":"function","name":"isUserVerified","inputs":[{"name":"user","type":"address","internalType":"address"}],"outputs":[{"name":"","type":"bool","internalType":"bool"}],"stateMutability":"view"},{"type":"function","name":"nextPollId","inputs":[],"outputs":[{"name":"","type":"uint256","internalType":"uint256"}],"stateMutability":"view"},{"type":"function","name":"onVerificationSuccess","inputs":[{"name":"output","type":"bytes","internalType":"bytes"},{"name":"userData","type":"bytes","internalType":"bytes"}],"outputs":[],"stateMutability":"nonpayable"},{"type":"function","name":"owner","inputs":[],"outputs":[{"name":"","type":"address","internalType":"address"}],"stateMutability":"view"},{"type":"function","name":"platformFeePercent","inputs":[],"outputs":[{"name":"","type":"uint256","internalType":"uint256"}],"stateMutability":"view"},{"type":"function","name":"polls","inputs":[{"name":"","type":"uint256","internalType":"uint256"}],"outputs":[{"name":"id","type":"uint256","internalType":"uint256"},{"name":"creator","type":"address","internalType":"address"},{"name":"title","type":"string","internalType":"string"},{"name":"description","type":"string","internalType":"string"},{"name":"category","type":"string","internalType":"string"},{"name":"walrusHash","type":"string","internalType":"string"},{"name":"rewardPerResponse","type":"uint256","internalType":"uint256"},{"name":"targetResponses","type":"uint256","internalType":"uint256"},{"name":"currentResponses","type":"uint256","internalType":"uint256"},{"name":"startTime","type":"uint256","internalType":"uint256"},{"name":"endTime","type":"uint256","internalType":"uint256"},{"name":"active","type":"bool","internalType":"bool"},{"name":"optionCount","type":"uint256","internalType":"uint256"}],"stateMutability":"view"},{"type":"function","name":"purchaseSubscription","inputs":[],"outputs":[],"stateMutability":"payable"},{"type":"function","name":"renounceOwnership","inputs":[],"outputs":[],"stateMutability":"nonpayable"},{"type":"function","name":"respondToPoll","inputs":[{"name":"_pollId","type":"uint256","internalType":"uint256"},{"name":"_optionIndex","type":"uint256","internalType":"uint256"}],"outputs":[],"stateMutability":"nonpayable"},{"type":"function","name":"scope","inputs":[],"outputs":[{"name":"","type":"uint256","internalType":"uint256"}],"stateMutability":"view"},{"type":"function","name":"setConfig","inputs":[{"name":"configDesc","type":"string","internalType":"string"},{"name":"config","type":"tuple","internalType":"struct SelfUtils.UnformattedVerificationConfigV2","components":[{"name":"olderThan","type":"uint256","internalType":"uint256"},{"name":"forbiddenCountries","type":"string[]","internalType":"string[]"},{"name":"ofacEnabled","type":"bool","internalType":"bool"}]}],"outputs":[],"stateMutability":"nonpayable"},{"type":"function","name":"setStrictVerificationConfig","inputs":[],"outputs":[],"stateMutability":"nonpayable"},{"type":"function","name":"transferOwnership","inputs":[{"name":"newOwner","type":"address","internalType":"address"}],"outputs":[],"stateMutability":"nonpayable"},{"type":"function","name":"updatePlatformFee","inputs":[{"name":"_newFeePercent","type":"uint256","internalType":"uint256"}],"outputs":[],"stateMutability":"nonpayable"},{"type":"function","name":"userProfiles","inputs":[{"name":"","type":"address","internalType":"address"}],"outputs":[{"name":"isVerified","type":"bool","internalType":"bool"},{"name":"verifiedAt","type":"uint256","internalType":"uint256"},{"name":"totalResponses","type":"uint256","internalType":"uint256"},{"name":"totalEarned","type":"uint256","internalType":"uint256"},{"name":"nullifier","type":"uint256","internalType":"uint256"}],"stateMutability":"view"},{"type":"function","name":"userRewards","inputs":[{"name":"","type":"address","internalType":"address"}],"outputs":[{"name":"","type":"uint256","internalType":"uint256"}],"stateMutability":"view"},{"type":"function","name":"verificationConfigId","inputs":[],"outputs":[{"name":"","type":"bytes32","internalType":"bytes32"}],"stateMutability":"view"},{"type":"function","name":"verifySelfProof","inputs":[{"name":"proofPayload","type":"bytes","internalType":"bytes"},{"name":"userContextData","type":"bytes","internalType":"bytes"}],"outputs":[],"stateMutability":"nonpayable"},{"type":"function","name":"voteForWeeklyAward","inputs":[{"name":"nominee","type":"address","internalType":"address"},{"name":"reason","type":"string","internalType":"string"}],"outputs":[],"stateMutability":"nonpayable"},{"type":"function","name":"walrusStorage","inputs":[],"outputs":[{"name":"","type":"address","internalType":"contract IWalrusStorage"}],"stateMutability":"view"},{"type":"function","name":"weeklyNominations","inputs":[{"name":"","type":"uint256","internalType":"uint256"},{"name":"","type":"uint256","internalType":"uint256"}],"outputs":[{"name":"nominee","type":"address","internalType":"address"},{"name":"reason","type":"string","internalType":"string"},{"name":"votes","type":"uint256","internalType":"uint256"},{"name":"week","type":"uint256","internalType":"uint256"}],"stateMutability":"view"},{"type":"function","name":"weeklyPrizePool","inputs":[],"outputs":[{"name":"","type":"uint256","internalType":"uint256"}],"stateMutability":"view"},{"type":"event","name":"OwnershipTransferred","inputs":[{"name":"previousOwner","type":"address","indexed":true,"internalType":"address"},{"name":"newOwner","type":"address","indexed":true,"internalType":"address"}],"anonymous":false},{"type":"event","name":"PollCreated","inputs":[{"name":"pollId","type":"uint256","indexed":true,"internalType":"uint256"},{"name":"creator","type":"address","indexed":true,"internalType":"address"},{"name":"reward","type":"uint256","indexed":false,"internalType":"uint256"},{"name":"walrusHash","type":"string","indexed":false,"internalType":"string"}],"anonymous":false},{"type":"event","name":"PollResponse","inputs":[{"name":"pollId","type":"uint256","indexed":true,"internalType":"uint256"},{"name":"user","type":"address","indexed":true,"internalType":"address"},{"name":"optionIndex","type":"uint256","indexed":false,"internalType":"uint256"},{"name":"reward","type":"uint256","indexed":false,"internalType":"uint256"},{"name":"nullifier","type":"uint256","indexed":false,"internalType":"uint256"}],"anonymous":false},{"type":"event","name":"RewardClaimed","inputs":[{"name":"user","type":"address","indexed":true,"internalType":"address"},{"name":"amount","type":"uint256","indexed":false,"internalType":"uint256"}],"anonymous":false},{"type":"event","name":"ScopeUpdated","inputs":[{"name":"newScope","type":"uint256","indexed":true,"internalType":"uint256"}],"anonymous":false},{"type":"event","name":"SubscriptionPurchased","inputs":[{"name":"user","type":"address","indexed":true,"internalType":"address"},{"name":"amount","type":"uint256","indexed":false,"internalType":"uint256"}],"anonymous":false},{"type":"event","name":"UserVerified","inputs":[{"name":"user","type":"address","indexed":true,"internalType":"address"},{"name":"timestamp","type":"uint256","indexed":false,"internalType":"uint256"},{"name":"nullifier","type":"uint256","indexed":false,"internalType":"uint256"}],"anonymous":false},{"type":"event","name":"WeeklyNomination","inputs":[{"name":"nominee","type":"address","indexed":true,"internalType":"address"},{"name":"nominator","type":"address","indexed":true,"internalType":"address"},{"name":"reason","type":"string","indexed":false,"internalType":"string"},{"name":"week","type":"uint256","indexed":false,"internalType":"uint256"}],"anonymous":false},{"type":"error","name":"InvalidDataFormat","inputs":[]},{"type":"error","name":"OwnableInvalidOwner","inputs":[{"name":"owner","type":"address","internalType":"address"}]},{"type":"error","name":"OwnableUnauthorizedAccount","inputs":[{"name":"account","type":"address","internalType":"address"}]},{"type":"error","name":"ReentrancyGuardReentrantCall","inputs":[]},{"type":"error","name":"UnauthorizedCaller","inputs":[]}],"bytecode":{"object":"0x60c0806040523461048557608081613730803803809161001f828561051b565b833981010312610485576100328161053e565b60208201519161005060606100496040840161053e565b920161053e565b9133156104ed575f8054336001600160a01b0319821681178355916001600160a01b03909116907f8be0079c531659141344cd1fd0a4f28419497f9722a3daafe3b4186f6b6457e09080a360018080556001600160a01b038281166080819052600296909655600591909155600a600655683635c9adc5dea0000060095560a091909152600380546001600160a01b031990811693831693909317905560048054909216921691909117905560405160209161010c838361051b565b5f8252604051606081016001600160401b038111828210176104d9576040525f815283810192835260408101925f84526040519161014983610500565b5f83525f868401525f6040840152608090604051610167838261051b565b8236823760608501526060938260405191610182878461051b565b86368437015260405195610196858861051b565b8436883780511515875280511515888801525115156040870152519151928351151591604051916101c7828461051b565b813684375f96815b875189101561029b578a8960051b890101516003815103610230576102286001928d8080946040519584879551918291018487015e8401908282015f8152815193849201905e01015f815203601f19810183528261051b565b9801976101cf565b60405162461bcd60e51b8152600481018d9052603760248201527f496e76616c696420636f756e74727920636f64653a206d75737420626520657860448201527f6163746c7920332063686172616374657273206c6f6e670000000000000000006064820152608490fd5b9290918a928a855197601f8901808a116102fb57601e8a019081116102fb57601f9004995f5b8b8110806104cf575b15610387575f5f5b601f81106103235750600482101561030f578160051b8b01525f1981146102fb576001016102c1565b634e487b7160e01b5f52601160045260245ffd5b634e487b7160e01b5f52603260045260245ffd5b9082601f02601f810484036102fb578261033c91610552565b8d811061034e575b50906001016102d2565b8b5181101561030f578b018a015160f81c6001600160fd1b03831683036102fb57600191610381918460031b1b90610552565b90610344565b5093918887969794926040519461039d86610500565b87151586528686019788526040860191825285019182528885019283526040519687956309ddb09160e01b87525115156004870152516024860152511515604485015251606484015f905b600482106104b6575050505160e483015f905b6003821061049b57505050815f610144925af1918215610490575f9261045e575b505060075562093a8042046008556040516131d091826105608339518181816108c00152610c9e015260a0518181816101c40152818161120701526126300152f35b90809250813d8311610489575b610475818361051b565b810103126104855751828061041c565b5f80fd5b503d61046b565b6040513d5f823e3d90fd5b825115158152879587955092830192600190920191016103fb565b82518152889688965092830192600190920191016103e8565b50600481106102ca565b634e487b7160e01b5f52604160045260245ffd5b631e4fbdf760e01b5f525f60045260245ffd5b60a081019081106001600160401b038211176104d957604052565b601f909101601f19168101906001600160401b038211908210176104d957604052565b51906001600160a01b038216820361048557565b919082018092116102fb5756fe608080604052600436101561001c575b50361561001a575f80fd5b005b5f905f3560e01c90816298fa22146129015750806306575c89146128e45780630660f1e8146128ac5780631a8cbcaa146126ad5780631ae22a1e146125545780632b78657114612537578063332d56d7146124ce578063371512791461249c578063372500ab146123e05780633d2c55c1146122215780634ad02da214611796578063598af9d51461176d5780636306a8df1461140157806367909581146113855780636e62d0a814611367578063715018a61461130d5780637971999a146112ef57806381717431146112c0578063839ddb8b1461129757806385aa80f3146110fa5780638c639a85146110dc5780638d2d8d6a14610c4b5780638da5cb5b14610c24578063aa0b598814610bc5578063ac2f007414610ab0578063ace417e014610a71578063ada1b31914610a33578063bb44374414610a15578063c4804ef0146109d6578063c4bd10d91461098c578063d161802b146107e4578063db1bed221461073e578063db2e21bc146106ef578063ecebd30c1461027c578063f2fde38b146101f65763f75f30400361000f57346101f357806003193601126101f3576040517f00000000000000000000000000000000000000000000000000000000000000006001600160a01b03168152602090f35b80fd5b50346101f35760203660031901126101f357610210612927565b610218612e1c565b6001600160a01b031680156102685781546001600160a01b03198116821783556001600160a01b03167f8be0079c531659141344cd1fd0a4f28419497f9722a3daafe3b4186f6b6457e08380a380f35b631e4fbdf760e01b82526004829052602482fd5b50346101f35761028b36612af3565b90338352600d6020526102a460ff604085205416612cfe565b808352600c6020526040832090600b82019260ff845416156106b857600a830154421161068657600883019182549360078101948554111561065057335f908152600d8201602081905260409091205460ff1661061757600c8201548410156105e157338852600d602052600460408920015491600e8101838a528060205260ff60408b2054166105905760069260018060a01b0333165f5260205260405f20600160ff19825416179055838a5260205260408920600160ff1982541617905561036e8654612d8f565b8655848952600f8101602052604089206103888154612d8f565b9055338952600d602052600260408a20016103a38154612d8f565b9055018054338952600d6020526103c2600360408b2001918254612d82565b9055600354815489916001600160a01b031690813b156105775782916044839260405194859384926340c10f1960e01b845233600485015260248401525af1801561056c5761057b575b50508054338952600e60205261042760408a20918254612d82565b9055876020610494600161043a876130c0565b602984610446426130c0565b60405196879468726573706f6e73655f60b81b828701528051918291018587015e840190605f60f81b84830152805192839101602a83015e010185838201520301601f1981018352826129ce565b6004546001600160a01b0316803b15610577576104d1839160409383855195869485936313b396d360e21b8552826004860152604485019061293d565b67726573706f6e736560c01b6020858303926003198401602488015260088152015201925af1801561056c57610553575b505054604051938452602084015260408301527f610b0a0ad21d8a5c3161923ba3c0d1396a7dd44eed93e96baa81fd89a5b15a4a60603393a35490541115610548575080f35b805460ff1916905580f35b8161055d916129ce565b61056857875f610502565b8780fd5b6040513d84823e3d90fd5b8280fd5b81610585916129ce565b61056857875f61040c565b60405162461bcd60e51b8152602060048201526024808201527f4e756c6c696669657220616c7265616479207573656420666f722074686973206044820152631c1bdb1b60e21b6064820152608490fd5b60405162461bcd60e51b815260206004820152600e60248201526d24b73b30b634b21037b83a34b7b760911b6044820152606490fd5b60405162461bcd60e51b8152602060048201526011602482015270105b1c9958591e481c995cdc1bdb991959607a1b6044820152606490fd5b60405162461bcd60e51b815260206004820152600e60248201526d15185c99d95d081c995858da195960921b6044820152606490fd5b60405162461bcd60e51b815260206004820152600a602482015269141bdb1b08195b99195960b21b6044820152606490fd5b60405162461bcd60e51b815260206004820152600f60248201526e506f6c6c206e6f742061637469766560881b6044820152606490fd5b50346101f357806003193601126101f357610708612e1c565b8080808060018060a01b038154164790828215610735575bf1156107295780f35b604051903d90823e3d90fd5b506108fc610720565b50806003193601126101f35767016345785d8a0000341061079f57338152600b60205260408120600160ff198254161790556040513481527f799bcc5d05a0d37fc0012dba6e154d1353b3b36495bf076daf88f7b1428a3f8160203392a280f35b60405162461bcd60e51b815260206004820152601d60248201527f496e73756666696369656e7420737562736372697074696f6e206665650000006044820152606490fd5b50346101f35760403660031901126101f3576004356001600160401b03811161098857610815903690600401612c0e565b91906024356001600160401b03811161057757610836903690600401612c0e565b9190602085106109795760408310610979578394836020116109755783604011610975576040610906916108b7606061087e61087936603f198b01878a01612a0a565b612df0565b9260025490808651998a93600160f91b60208601528d6021860152888501528484013781018a838201520301601f1981018752866129ce565b60018060a01b037f00000000000000000000000000000000000000000000000000000000000000001695808351958693602085015284840137810187838201520301601f1981018352826129ce565b823b156109705761094e9261093c85809460405196879586948593637bf41d7760e11b855260406004860152604485019061293d565b8381036003190160248501529061293d565b03925af1801561056c5761095f5750f35b81610969916129ce565b6101f35780f35b505050fd5b8480fd5b63a512e2ff60e01b8452600484fd5b5080fd5b50346101f3576109be60406109d2926109a436612af3565b908252600c60205260108383200190825260205220612b6e565b60405191829160208352602083019061293d565b0390f35b50346101f35760203660031901126101f35760209060ff906040906001600160a01b03610a01612927565b168152600b84522054166040519015158152f35b50346101f357806003193601126101f3576020600754604051908152f35b50346101f35760603660031901126101f357604435906001600160401b0382116101f3576020610a696108793660048601612a40565b604051908152f35b50346101f35760203660031901126101f35760209060ff906040906001600160a01b03610a9c612927565b168152600d84522054166040519015158152f35b50346101f35760203660031901126101f3576004358152600c60205260409020805460018201546001600160a01b031691610aed60028201612b6e565b610af960038301612b6e565b91610b0660048201612b6e565b92610b1360058301612b6e565b936006830154946007840154600885015491600986015493600a87015495600b88015460ff1697600c0154986040519c8d9c8d5260208d015260408c016101a090526101a08c01610b639161293d565b8b810360608d0152610b749161293d565b8a810360808c0152610b859161293d565b89810360a08b0152610b969161293d565b9660c089015260e088015261010087015261012086015261014085015215156101608401526101808301520390f35b50346101f35760203660031901126101f357600435610be2612e1c565b60148111610bf05760065580f35b60405162461bcd60e51b815260206004820152600c60248201526b08ccaca40e8dede40d0d2ced60a31b6044820152606490fd5b50346101f357806003193601126101f357546040516001600160a01b039091168152602090f35b50346101f35760403660031901126101f3576004356001600160401b03811161098857610c7c903690600401612a40565b6024356001600160401b03811161057757610c9b903690600401612a40565b507f00000000000000000000000000000000000000000000000000000000000000006001600160a01b031633036110cd57805181019060208201906020818403126110c9576020810151906001600160401b038211610975570191610240908390031261057757604051906101a082018281106001600160401b038211176110b55760405260208301518252604083015191602081019283526060840151936040820194855282609f8201121561106857604051610d5a6080826129ce565b806101008301918583116110645760808401905b8382106110a55750506060840152516001600160401b03811161106c57836020610d9a92840101612daa565b60808301526101208101516001600160401b03811161106c5760209082010183601f8201121561106c57805190610dd082612a5e565b91610dde60405193846129ce565b80835260208084019160051b830101918683116110a15760208101915b838310611070575050505060a08301526101408101516001600160401b03811161106c57836020610e2e92840101612daa565b60c08301526101608101516001600160401b03811161106c57836020610e5692840101612daa565b60e08301526101808101516001600160401b03811161106c57836020610e7e92840101612daa565b6101008301526101a08101516001600160401b03811161106c57836020610ea792840101612daa565b6101208301526101c08101516001600160401b03811161106c57836020610ed092840101612daa565b6101408301526101e08101516101608301528261021f820112156110685760405192610efd6060856129ce565b839161026081019182116105685761020001915b81831061104b5750505061018001525181518352600f60205260408320546001600160a01b03909116919060ff1661100d576040817f7e1c6d9e9f71f4c4f9c072bdd7a6eaa673772c6b1f94d93eb000abd65cdcba1292518552600f602052818520600160ff19825416179055838552600d60205260028286200154848652600d602052600460038488200154835190855193610fad856129b3565b60018552602085014281528786019182526060860192835260808601938452898b52600d602052878b209551151560ff8019885416911617865551600186015551600285015551600384015551910155518151904282526020820152a280f35b60405162461bcd60e51b8152602060048201526016602482015275139d5b1b1a599a595c88185b1c9958591e481d5cd95960521b6044820152606490fd5b8251801515810361106457815260209283019201610f11565b8880fd5b8580fd5b8680fd5b82516001600160401b03811161109d576020916110928a848094870101612daa565b815201920191610dfb565b8b80fd5b8980fd5b8151815260209182019101610d6e565b634e487b7160e01b85526041600452602485fd5b8380fd5b635c427cd960e01b8252600482fd5b50346101f357806003193601126101f3576020600654604051908152f35b50346101f357806003193601126101f357611113612e1c565b6040516111216080826129ce565b600381526060825b81811061128657505061120260206111e9604093845161114986826129ce565b600381526250524b60e81b8482015261116182612cbd565b5261116b81612cbd565b50845161117886826129ce565b600381526224a92760e91b8482015261119082612cca565b5261119a81612cca565b5084516111a786826129ce565b600381526229aca960e91b848201526111bf82612cda565b526111c981612cda565b508451906111d68261297d565b6012825283820152600185820152612e42565b8351809381926309ddb09160e01b835260048301612c3b565b0381867f00000000000000000000000000000000000000000000000000000000000000006001600160a01b03165af191821561127d57508291611247575b5060075580f35b90506020813d602011611275575b81611262602093836129ce565b8101031261127157515f611240565b5f80fd5b3d9150611255565b513d84823e3d90fd5b806060602080938601015201611129565b50346101f357806003193601126101f3576004546040516001600160a01b039091168152602090f35b50346101f35760203660031901126101f35760ff60406020926004358152600f84522054166040519015158152f35b50346101f357806003193601126101f3576020600954604051908152f35b50346101f357806003193601126101f357611326612e1c565b80546001600160a01b03198116825581906001600160a01b03167f8be0079c531659141344cd1fd0a4f28419497f9722a3daafe3b4186f6b6457e08280a380f35b50346101f357806003193601126101f3576020600254604051908152f35b50346101f35761139436612af3565b908252600a602052604082208054821015610577576113b39250612b09565b5080546001600160a01b03166113cb60018301612b6e565b91600360028201549101546113f2604051948594855260806020860152608085019061293d565b91604084015260608301520390f35b50346101f35760403660031901126101f35761141b612927565b6024356001600160401b0381116105775761143a903690600401612a40565b338352600b60205260ff604084205416156117325762093a8042049160085483036116ed576001600160a01b0316808452600d602052604084205490919060ff16156116a857828452600a602052604084206040519061149982612998565b8382526020820183815260408301906001825260608401928784528054906801000000000000000082101561168057906114d891600182018155612b09565b949094611694575184546001600160a01b0319166001600160a01b039190911617845551805160018501916001600160401b0382116116805761151b8354612b36565b601f811161163b575b50602090601f83116001146115b25791807f5ff7bb096ba64e8a4b2e6c72c59e5d5823dc03bcc6891f18d5dd5ffa354325fd9897969492600396948d926115a7575b50508160011b915f1990871b1c19161790555b516002840155519101556115986040519160408352604083019061293d565b9360208201528033940390a380f35b015190505f80611566565b838b52818b209190601f1984168c5b8181106116235750926001928592600398967f5ff7bb096ba64e8a4b2e6c72c59e5d5823dc03bcc6891f18d5dd5ffa354325fd9c9b9a98961061160c575b505050811b019055611579565b01515f1983891b60f8161c191690555f80806115ff565b929360206001819287860151815501950193016115c1565b838b5260208b20601f840160051c81019160208510611676575b601f0160051c01905b81811061166b5750611524565b8b815560010161165e565b9091508190611655565b634e487b7160e01b8a52604160045260248afd5b634e487b7160e01b89526004899052602489fd5b60405162461bcd60e51b815260206004820152601860248201527f4e6f6d696e6565206d75737420626520766572696669656400000000000000006044820152606490fd5b60405162461bcd60e51b815260206004820152601e60248201527f43616e206f6e6c7920766f746520666f722063757272656e74207765656b00006044820152606490fd5b60405162461bcd60e51b815260206004820152601360248201527214dd589cd8dc9a58995c881c995c5d5a5c9959606a1b6044820152606490fd5b50346101f357806003193601126101f3576003546040516001600160a01b039091168152602090f35b50602036600319011261127157600435906001600160401b0382116112715760e06003198336030112611271576040519060e082018281106001600160401b0382111761220d5760405282600401356001600160401b038111611271576118039060043691860101612a40565b825260248301356001600160401b038111611271576118289060043691860101612a40565b6020830190815260448401356001600160401b038111611271576118529060043691870101612a40565b936040840194855260648101356001600160401b0381116112715761187d9060043691840101612a75565b946060850195865260808501926084830135845260a086019260a4810135845260c460c088019101358152335f52600d6020526118c060ff60405f205416612cfe565b865151156121d757875151600281101590816121cb575b501561218f5783511561214a5780511561210e576119106118fb8651865190612d5b565b606461190960065483612d5b565b0490612d82565b938434106120d2576020936005549361192885612d8f565b60055561198f6001611939876130c0565b602589611945426130c0565b6040519b8c9464706f6c6c5f60d81b828701528051918291018587015e840190605f60f81b84830152805192839101602683015e01015f838201520301601f1981018852876129ce565b6004546001600160a01b0316803b15611271575f60405180926313b396d360e21b825260406004830152818360406119cb8d604485019061293d565b631c1bdb1b60e21b6020858303926003198401602488015260048152015201925af180156120c7576120b2575b50848952600c602052604089208581556001810180546001600160a01b031916331790559951805160028c01916001600160401b03821161209e578190611a3f8454612b36565b601f811161204b575b506020908d601f8411600114611fe95792611fde575b50508160011b915f199060031b1c19161790555b51805160038b01916001600160401b038211611fca578190611a948454612b36565b601f8111611f7a575b50602090601f8311600114611f18578c92611f0d575b50508160011b915f199060031b1c19161790555b51805160048a01916001600160401b038211611680578190611ae98454612b36565b601f8111611ebd575b50602090601f8311600114611e5b578b92611e50575b50508160011b915f199060031b1c19161790555b6005880184516001600160401b038111611cff57611b3a8254612b36565b601f8111611e0b575b50806020601f8211600114611dab578a91611da0575b508160011b915f199060031b1c19161790555b855160068901555160078801558560088801554260098801555162015180810290808204620151801490151715611d8c57611baa9097969742612d82565b600a880155600b8701600160ff19825416179055855151600c8801556010859701965b86518051821015611d135781611be291612cea565b518187528860205260408720908051906001600160401b038211611cff57611c0a8354612b36565b601f8111611cba575b50602090601f8311600114611c54576001949392918a9183611c49575b50505f19600383901b1c191690841b1790555b01611bcd565b015190505f80611c30565b838a52818a209190601f1984168b5b818110611ca2575091600196959492918388959310611c8a575b505050811b019055611c43565b01515f1960f88460031b161c191690555f8080611c7d565b92936020600181928786015181550195019301611c63565b838a5260208a20601f840160051c81019160208510611cf5575b601f0160051c01905b818110611cea5750611c13565b8a8155600101611cdd565b9091508190611cd4565b634e487b7160e01b89526041600452602489fd5b50507f28605ea2c4ad353048248e141b5a8ec45562ba4c69fe5a0e80b332812117c8ad8594516040519081526040602082015280611d563395604083019061293d565b0390a3803411611d635750f35b8180611d70819334612d9d565b818115611d83575b3390f1156107295780f35b506108fc611d78565b634e487b7160e01b86526011600452602486fd5b90508601515f611b59565b838b52808b209150601f1983168b5b818110611df357509083600194939210611ddb575b5050811b019055611b6c565b8801515f1960f88460031b161c191690555f80611dcf565b9192602060018192868d015181550194019201611dba565b828a5260208a20601f830160051c81019160208410611e46575b601f0160051c01905b818110611e3b5750611b43565b8a8155600101611e2e565b9091508190611e25565b015190505f80611b08565b848c52818c209250601f1984168c5b818110611ea55750908460019594939210611e8d575b505050811b019055611b1c565b01515f1960f88460031b161c191690555f8080611e80565b92936020600181928786015181550195019301611e6a565b909150838b5260208b20601f840160051c81019160208510611f03575b90601f859493920160051c01905b818110611ef55750611af2565b8c8155849350600101611ee8565b9091508190611eda565b015190505f80611ab3565b848d52818d209250601f1984168d5b818110611f625750908460019594939210611f4a575b505050811b019055611ac7565b01515f1960f88460031b161c191690555f8080611f3d565b92936020600181928786015181550195019301611f27565b909150838c5260208c20601f840160051c81019160208510611fc0575b90601f859493920160051c01905b818110611fb25750611a9d565b8d8155849350600101611fa5565b9091508190611f97565b634e487b7160e01b8b52604160045260248bfd5b015190505f80611a5e565b8581528281209350601f198516905b818110612033575090846001959493921061201b575b505050811b019055611a72565b01515f1960f88460031b161c191690555f808061200e565b92936020600181928786015181550195019301611ff8565b909150838d5260208d20601f840160051c81019160208510612094575b849392918f91601f0160051c0191905b828210612086575050611a48565b81558493506001018e612078565b9091508190612068565b634e487b7160e01b8c52604160045260248cfd5b6120bf9199505f906129ce565b5f975f6119f8565b6040513d5f823e3d90fd5b60405162461bcd60e51b8152602060048201526014602482015273125b9cdd59999a58da595b9d081c185e5b595b9d60621b6044820152606490fd5b60405162461bcd60e51b815260206004820152601460248201527304475726174696f6e206d757374206265203e20360641b6044820152606490fd5b60405162461bcd60e51b815260206004820152601c60248201527f54617267657420726573706f6e736573206d757374206265203e2030000000006044820152606490fd5b60405162461bcd60e51b81526020600482015260146024820152730c8b4d881bdc1d1a5bdb9cc81c995c5d5a5c995960621b6044820152606490fd5b6006915011155f6118d7565b60405162461bcd60e51b815260206004820152600e60248201526d151a5d1b19481c995c5d5a5c995960921b6044820152606490fd5b634e487b7160e01b5f52604160045260245ffd5b34611271575f366003190112611271576008545f52600a60205260405f20805461224a81612a5e565b9161225860405193846129ce565b81835260208301905f5260205f205f915b8383106123915784518561229561227f83612a5e565b9261228d60405194856129ce565b808452612a5e565b602083019190601f19013683378051906122b161227f83612a5e565b6020830190601f19013682375f5b825181101561230b576001906001600160a01b036122dd8286612cea565b5151166122ea8289612cea565b5260406122f78286612cea565b5101516123048287612cea565b52016122bf565b83868387604051938493604085019060408652518091526060850192905f5b81811061236f575050506020908483038286015251918281520191905f5b818110612356575050500390f35b8251845285945060209384019390920191600101612348565b82516001600160a01b031685528796506020948501949092019160010161232a565b600460206001926040516123a481612998565b848060a01b0386541681526123ba858701612b6e565b838201526002860154604082015260038601546060820152815201920192019190612269565b34611271575f3660031901126112715760026001541461248d576002600155335f52600e60205260405f2054801561245257335f52600e6020525f60408120556040519081527f106f923f993c2149d49b4255ff723acafa1f2d94393f561d3eda32ae348f724160203392a260018055005b60405162461bcd60e51b81526020600482015260136024820152724e6f207265776172647320746f20636c61696d60681b6044820152606490fd5b633ee5aeb560e01b5f5260045ffd5b34611271576124aa36612af3565b905f52600c602052600f60405f2001905f52602052602060405f2054604051908152f35b34611271576020366003190112611271576001600160a01b036124ef612927565b165f52600d60205260a060405f2060ff815416906001810154906002810154600460038301549201549260405194151585526020850152604084015260608301526080820152f35b34611271575f366003190112611271576020600554604051908152f35b34611271576040366003190112611271576004356001600160401b03811161127157612584903690600401612a40565b6024356001600160401b038111611271576060600319823603011261127157604051906125b08261297d565b806004013582526024810135906001600160401b038211611271576125dd60449260043691840101612a75565b602084015201359182151583036112715761261160209161262b946040850152612605612e1c565b82815191012092612e42565b604051809481926309ddb09160e01b835260048301612c3b565b03815f7f00000000000000000000000000000000000000000000000000000000000000006001600160a01b03165af19182156120c7575f92612679575b505f52601060205260405f20555f80f35b9091506020813d6020116126a5575b81612695602093836129ce565b8101031261127157519082612668565b3d9150612688565b34611271576020366003190112611271576040516126ca81612961565b5f8152602081015f905260408101606090526060810160609052608081016060905260a081016060905260c081015f905260e081015f905261010081015f905261012081015f905261014081015f9052610160015f90526004355f52600c60205260405f208054600160a01b600190036001830154169160068101549060078101546008820154600983015490600a84015492600b85015460ff16946040519761277389612961565b88526020880198895261278860028201612b6e565b604089019081529061279c60038201612b6e565b60608a019081526127af60048301612b6e565b9160808b019283526005016127c390612b6e565b9260a08b0193845260c08b01998a5260e08b019485526101008b019586526101208b019687526101408b019788526101608b0198151589526040519b8c9b60208d525160208d0152600160a01b6001900390511660408c01525160608b0161018090526101a08b016128349161293d565b90518a8203601f190160808c015261284c919061293d565b9051898203601f190160a08b0152612864919061293d565b9051888203601f190160c08a015261287c919061293d565b955160e0880152516101008701525161012086015251610140850152516101608401525115156101808301520390f35b34611271576020366003190112611271576001600160a01b036128cd612927565b165f52600e602052602060405f2054604051908152f35b34611271575f366003190112611271576020600854604051908152f35b34611271576020366003190112611271576020906004355f526010825260405f20548152f35b600435906001600160a01b038216820361127157565b805180835260209291819084018484015e5f828201840152601f01601f1916010190565b61018081019081106001600160401b0382111761220d57604052565b606081019081106001600160401b0382111761220d57604052565b608081019081106001600160401b0382111761220d57604052565b60a081019081106001600160401b0382111761220d57604052565b90601f801991011681019081106001600160401b0382111761220d57604052565b6001600160401b03811161220d57601f01601f191660200190565b929192612a16826129ef565b91612a2460405193846129ce565b829481845281830111611271578281602093845f960137010152565b9080601f8301121561127157816020612a5b93359101612a0a565b90565b6001600160401b03811161220d5760051b60200190565b9080601f83011215611271578135612a8c81612a5e565b92612a9a60405194856129ce565b81845260208085019260051b820101918383116112715760208201905b838210612ac657505050505090565b81356001600160401b03811161127157602091612ae887848094880101612a40565b815201910190612ab7565b6040906003190112611271576004359060243590565b8054821015612b22575f5260205f209060021b01905f90565b634e487b7160e01b5f52603260045260245ffd5b90600182811c92168015612b64575b6020831014612b5057565b634e487b7160e01b5f52602260045260245ffd5b91607f1691612b45565b9060405191825f825492612b8184612b36565b8084529360018116908115612bec5750600114612ba8575b50612ba6925003836129ce565b565b90505f9291925260205f20905f915b818310612bd0575050906020612ba6928201015f612b99565b6020919350806001915483858901015201910190918492612bb7565b905060209250612ba694915060ff191682840152151560051b8201015f612b99565b9181601f84011215611271578235916001600160401b038311611271576020838186019501011161127157565b919091610140810192805115158252602081015160208301526040810151151560408301526060810151606083015f905b60048210612ca75750505060800151905f9060e0015b60038210612c8f57505050565b60208060019285511515815201930191019091612c82565b6020806001928551815201930191019091612c6c565b805115612b225760200190565b805160011015612b225760400190565b805160021015612b225760600190565b8051821015612b225760209160051b010190565b15612d0557565b60405162461bcd60e51b815260206004820152602860248201527f4d75737420636f6d706c6574652053656c662050726f746f636f6c20766572696044820152673334b1b0ba34b7b760c11b6064820152608490fd5b81810292918115918404141715612d6e57565b634e487b7160e01b5f52601160045260245ffd5b91908201809211612d6e57565b5f198114612d6e5760010190565b91908203918211612d6e57565b81601f8201121561127157805190612dc1826129ef565b92612dcf60405194856129ce565b8284526020838301011161127157815f9260208093018386015e8301015290565b80519081612e01575b505060075490565b602001205f52601060205260405f205480612a5b5780612df9565b5f546001600160a01b03163303612e2f57565b63118cdaa760e01b5f523360045260245ffd5b604051612e4e816129b3565b5f81525f60208201525f6040820152608091604051612e6d84826129ce565b8336823760608301526060918360405191612e8885846129ce565b84368437015260405193612e9c83866129ce565b823686376040820180511515865280511515602087015251151560408601526020825192015192835115159160405193612ed687866129ce565b863686375f97835b87518a1015612fae57612ef18a89612cea565b51906003825103612f4357612f3b60209182806001956040519584879551918291018487015e8401908282015f8152815193849201905e01015f815203601f1981018352826129ce565b990198612ede565b60405162461bcd60e51b815260206004820152603760248201527f496e76616c696420636f756e74727920636f64653a206d75737420626520657860448201527f6163746c7920332063686172616374657273206c6f6e670000000000000000006064820152608490fd5b95985091939690929550845195601f8701808811612d6e57601e8801908111612d6e57601f9004975f5b898110806130a5575b15613074575f905f5b601f811061301157506004811015612b225761300c918160051b8d0152612d8f565b612fd8565b81601f02601f81048303612d6e578161302991612d82565b8b811061303a575b50600101612fea565b613047908b9492946130af565b5160f81c6001600160fd1b0384168403612d6e5760019161306d918560031b1b90612d82565b9290613031565b5092965092965093509591956040519561308d876129b3565b80151587526020870152604086015284015282015290565b5060048110612fe1565b908151811015612b22570160200190565b801561317a5780815f925b6131665750806130da836129ef565b926130e860405194856129ce565b808452601f196130f7826129ef565b01366020860137915b61310957505090565b5f198201918211612d6e5781600a820491600a830290838204600a1484151715612d6e5760ff9161313991612d9d565b1660300160ff8111612d6e5760f81b6001600160f81b0319165f1a9061315f90856130af565b5380613100565b91613172600a91612d8f565b9204806130cb565b506040516131896040826129ce565b60018152600360fc1b60208201529056fea26469706673582212208f58875b5ba396e74224b81abc7773d08c67664482591dbcd6fb2e8d6d3b748c64736f6c634300081c0033","linkReferences":{}},"methodIdentifiers":{"claimRewards()":"372500ab","configs(uint256)":"0098fa22","createPoll((string,string,string,string[],uint256,uint256,uint256))":"4ad02da2","credenceToken()":"598af9d5","currentWeek()":"06575c89","emergencyWithdraw()":"db2e21bc","getConfigId(bytes32,bytes32,bytes)":"ada1b319","getPoll(uint256)":"1a8cbcaa","getPollOption(uint256,uint256)":"c4bd10d9","getPollVotes(uint256,uint256)":"37151279","getWeeklyNominees()":"3d2c55c1","globalNullifiers(uint256)":"81717431","identityVerificationHubV2()":"f75f3040","isSubscriber(address)":"c4804ef0","isUserVerified(address)":"ace417e0","nextPollId()":"2b786571","onVerificationSuccess(bytes,bytes)":"8d2d8d6a","owner()":"8da5cb5b","platformFeePercent()":"8c639a85","polls(uint256)":"ac2f0074","purchaseSubscription()":"db1bed22","renounceOwnership()":"715018a6","respondToPoll(uint256,uint256)":"ecebd30c","scope()":"6e62d0a8","setConfig(string,(uint256,string[],bool))":"1ae22a1e","setStrictVerificationConfig()":"85aa80f3","transferOwnership(address)":"f2fde38b","updatePlatformFee(uint256)":"aa0b5988","userProfiles(address)":"332d56d7","userRewards(address)":"0660f1e8","verificationConfigId()":"bb443744","verifySelfProof(bytes,bytes)":"d161802b","voteForWeeklyAward(address,string)":"6306a8df","walrusStorage()":"839ddb8b","weeklyNominations(uint256,uint256)":"67909581","weeklyPrizePool()":"7971999a"},"id":12}