{"abi":[{"type":"constructor","inputs":[{"name":"_admin","type":"address","internalType":"address"}],"stateMutability":"nonpayable"},{"type":"function","name":"BURNER_ROLE","inputs":[],"outputs":[{"name":"","type":"bytes32","internalType":"bytes32"}],"stateMutability":"view"},{"type":"function","name":"DEFAULT_ADMIN_ROLE","inputs":[],"outputs":[{"name":"","type":"bytes32","internalType":"bytes32"}],"stateMutability":"view"},{"type":"function","name":"MAX_SUPPLY","inputs":[],"outputs":[{"name":"","type":"uint256","internalType":"uint256"}],"stateMutability":"view"},{"type":"function","name":"MINTER_ROLE","inputs":[],"outputs":[{"name":"","type":"bytes32","internalType":"bytes32"}],"stateMutability":"view"},{"type":"function","name":"PAUSER_ROLE","inputs":[],"outputs":[{"name":"","type":"bytes32","internalType":"bytes32"}],"stateMutability":"view"},{"type":"function","name":"allowance","inputs":[{"name":"owner","type":"address","internalType":"address"},{"name":"spender","type":"address","internalType":"address"}],"outputs":[{"name":"","type":"uint256","internalType":"uint256"}],"stateMutability":"view"},{"type":"function","name":"approve","inputs":[{"name":"spender","type":"address","internalType":"address"},{"name":"value","type":"uint256","internalType":"uint256"}],"outputs":[{"name":"","type":"bool","internalType":"bool"}],"stateMutability":"nonpayable"},{"type":"function","name":"balanceOf","inputs":[{"name":"account","type":"address","internalType":"address"}],"outputs":[{"name":"","type":"uint256","internalType":"uint256"}],"stateMutability":"view"},{"type":"function","name":"burn","inputs":[{"name":"amount","type":"uint256","internalType":"uint256"}],"outputs":[],"stateMutability":"nonpayable"},{"type":"function","name":"burnFrom","inputs":[{"name":"account","type":"address","internalType":"address"},{"name":"amount","type":"uint256","internalType":"uint256"}],"outputs":[],"stateMutability":"nonpayable"},{"type":"function","name":"decimals","inputs":[],"outputs":[{"name":"","type":"uint8","internalType":"uint8"}],"stateMutability":"pure"},{"type":"function","name":"getRoleAdmin","inputs":[{"name":"role","type":"bytes32","internalType":"bytes32"}],"outputs":[{"name":"","type":"bytes32","internalType":"bytes32"}],"stateMutability":"view"},{"type":"function","name":"grantMinterRole","inputs":[{"name":"account","type":"address","internalType":"address"}],"outputs":[],"stateMutability":"nonpayable"},{"type":"function","name":"grantRole","inputs":[{"name":"role","type":"bytes32","internalType":"bytes32"},{"name":"account","type":"address","internalType":"address"}],"outputs":[],"stateMutability":"nonpayable"},{"type":"function","name":"hasRole","inputs":[{"name":"role","type":"bytes32","internalType":"bytes32"},{"name":"account","type":"address","internalType":"address"}],"outputs":[{"name":"","type":"bool","internalType":"bool"}],"stateMutability":"view"},{"type":"function","name":"mint","inputs":[{"name":"to","type":"address","internalType":"address"},{"name":"amount","type":"uint256","internalType":"uint256"}],"outputs":[],"stateMutability":"nonpayable"},{"type":"function","name":"name","inputs":[],"outputs":[{"name":"","type":"string","internalType":"string"}],"stateMutability":"view"},{"type":"function","name":"pause","inputs":[],"outputs":[],"stateMutability":"nonpayable"},{"type":"function","name":"paused","inputs":[],"outputs":[{"name":"","type":"bool","internalType":"bool"}],"stateMutability":"view"},{"type":"function","name":"renounceRole","inputs":[{"name":"role","type":"bytes32","internalType":"bytes32"},{"name":"callerConfirmation","type":"address","internalType":"address"}],"outputs":[],"stateMutability":"nonpayable"},{"type":"function","name":"revokeRole","inputs":[{"name":"role","type":"bytes32","internalType":"bytes32"},{"name":"account","type":"address","internalType":"address"}],"outputs":[],"stateMutability":"nonpayable"},{"type":"function","name":"supportsInterface","inputs":[{"name":"interfaceId","type":"bytes4","internalType":"bytes4"}],"outputs":[{"name":"","type":"bool","internalType":"bool"}],"stateMutability":"view"},{"type":"function","name":"symbol","inputs":[],"outputs":[{"name":"","type":"string","internalType":"string"}],"stateMutability":"view"},{"type":"function","name":"totalMinted","inputs":[],"outputs":[{"name":"","type":"uint256","internalType":"uint256"}],"stateMutability":"view"},{"type":"function","name":"totalSupply","inputs":[],"outputs":[{"name":"","type":"uint256","internalType":"uint256"}],"stateMutability":"view"},{"type":"function","name":"transfer","inputs":[{"name":"to","type":"address","internalType":"address"},{"name":"value","type":"uint256","internalType":"uint256"}],"outputs":[{"name":"","type":"bool","internalType":"bool"}],"stateMutability":"nonpayable"},{"type":"function","name":"transferFrom","inputs":[{"name":"from","type":"address","internalType":"address"},{"name":"to","type":"address","internalType":"address"},{"name":"value","type":"uint256","internalType":"uint256"}],"outputs":[{"name":"","type":"bool","internalType":"bool"}],"stateMutability":"nonpayable"},{"type":"function","name":"unpause","inputs":[],"outputs":[],"stateMutability":"nonpayable"},{"type":"event","name":"Approval","inputs":[{"name":"owner","type":"address","indexed":true,"internalType":"address"},{"name":"spender","type":"address","indexed":true,"internalType":"address"},{"name":"value","type":"uint256","indexed":false,"internalType":"uint256"}],"anonymous":false},{"type":"event","name":"Paused","inputs":[{"name":"account","type":"address","indexed":false,"internalType":"address"}],"anonymous":false},{"type":"event","name":"RoleAdminChanged","inputs":[{"name":"role","type":"bytes32","indexed":true,"internalType":"bytes32"},{"name":"previousAdminRole","type":"bytes32","indexed":true,"internalType":"bytes32"},{"name":"newAdminRole","type":"bytes32","indexed":true,"internalType":"bytes32"}],"anonymous":false},{"type":"event","name":"RoleGranted","inputs":[{"name":"role","type":"bytes32","indexed":true,"internalType":"bytes32"},{"name":"account","type":"address","indexed":true,"internalType":"address"},{"name":"sender","type":"address","indexed":true,"internalType":"address"}],"anonymous":false},{"type":"event","name":"RoleRevoked","inputs":[{"name":"role","type":"bytes32","indexed":true,"internalType":"bytes32"},{"name":"account","type":"address","indexed":true,"internalType":"address"},{"name":"sender","type":"address","indexed":true,"internalType":"address"}],"anonymous":false},{"type":"event","name":"TokensBurned","inputs":[{"name":"from","type":"address","indexed":true,"internalType":"address"},{"name":"amount","type":"uint256","indexed":false,"internalType":"uint256"}],"anonymous":false},{"type":"event","name":"TokensMinted","inputs":[{"name":"to","type":"address","indexed":true,"internalType":"address"},{"name":"amount","type":"uint256","indexed":false,"internalType":"uint256"}],"anonymous":false},{"type":"event","name":"Transfer","inputs":[{"name":"from","type":"address","indexed":true,"internalType":"address"},{"name":"to","type":"address","indexed":true,"internalType":"address"},{"name":"value","type":"uint256","indexed":false,"internalType":"uint256"}],"anonymous":false},{"type":"event","name":"Unpaused","inputs":[{"name":"account","type":"address","indexed":false,"internalType":"address"}],"anonymous":false},{"type":"error","name":"AccessControlBadConfirmation","inputs":[]},{"type":"error","name":"AccessControlUnauthorizedAccount","inputs":[{"name":"account","type":"address","internalType":"address"},{"name":"neededRole","type":"bytes32","internalType":"bytes32"}]},{"type":"error","name":"ERC20InsufficientAllowance","inputs":[{"name":"spender","type":"address","internalType":"address"},{"name":"allowance","type":"uint256","internalType":"uint256"},{"name":"needed","type":"uint256","internalType":"uint256"}]},{"type":"error","name":"ERC20InsufficientBalance","inputs":[{"name":"sender","type":"address","internalType":"address"},{"name":"balance","type":"uint256","internalType":"uint256"},{"name":"needed","type":"uint256","internalType":"uint256"}]},{"type":"error","name":"ERC20InvalidApprover","inputs":[{"name":"approver","type":"address","internalType":"address"}]},{"type":"error","name":"ERC20InvalidReceiver","inputs":[{"name":"receiver","type":"address","internalType":"address"}]},{"type":"error","name":"ERC20InvalidSender","inputs":[{"name":"sender","type":"address","internalType":"address"}]},{"type":"error","name":"ERC20InvalidSpender","inputs":[{"name":"spender","type":"address","internalType":"address"}]},{"type":"error","name":"EnforcedPause","inputs":[]},{"type":"error","name":"ExpectedPause","inputs":[]}],"bytecode":{"object":"0x60806040523461041f5761181c6020813803918261001c81610423565b93849283398101031261041f57516001600160a01b03811680820361041f576100456040610423565b91600e83526d21b932b232b731b2902a37b5b2b760911b602084015261006b6040610423565b600481526310d4915160e21b602082015283516001600160401b03811161033057600354600181811c91168015610415575b602082101461031257601f81116103b2575b50602094601f821160011461034f579481929394955f92610344575b50508160011b915f199060031b1c1916176003555b8051906001600160401b03821161033057600454600181811c91168015610326575b602082101461031257601f81116102af575b50602090601f8311600114610246576101699392915f918361023b575b50508160011b915f199060031b1c1916176004555b61014f81610448565b50610159816104be565b5061016381610551565b506105e4565b5080156102285760ff60065416610219576002546a52b7d2dcc80cd2e4000000810180911161020557600255805f525f60205260405f206a52b7d2dcc80cd2e400000081540190555f7fddf252ad1be2c89b69c2b068fc378daa952ba7f163c4a11628f55a4df523b3ef60206040516a52b7d2dcc80cd2e40000008152a36a52b7d2dcc80cd2e400000060075560405161110490816106788239f35b634e487b7160e01b5f52601160045260245ffd5b63d93c066560e01b5f5260045ffd5b63ec442f0560e01b5f525f60045260245ffd5b015190505f80610131565b90601f1983169160045f52815f20925f5b81811061029757509160019391856101699796941061027f575b505050811b01600455610146565b01515f1960f88460031b161c191690555f8080610271565b92936020600181928786015181550195019301610257565b60045f527f8a35acfbc15ff81a39ae7d344fd709f28e8600b4aa8c65c6b64bfe7fe36bd19b601f840160051c81019160208510610308575b601f0160051c01905b8181106102fd5750610114565b5f81556001016102f0565b90915081906102e7565b634e487b7160e01b5f52602260045260245ffd5b90607f1690610102565b634e487b7160e01b5f52604160045260245ffd5b015190505f806100cb565b601f1982169560035f52805f20915f5b88811061039a57508360019596979810610382575b505050811b016003556100e0565b01515f1960f88460031b161c191690555f8080610374565b9192602060018192868501518155019401920161035f565b60035f527fc2575a0e9e593c00f959f8c92f12db2869c3395a3b0502d05e2516446f71f85b601f830160051c8101916020841061040b575b601f0160051c01905b81811061040057506100af565b5f81556001016103f3565b90915081906103ea565b90607f169061009d565b5f80fd5b6040519190601f01601f191682016001600160401b0381118382101761033057604052565b6001600160a01b0381165f9081525f5160206117dc5f395f51905f52602052604090205460ff166104b9576001600160a01b03165f8181525f5160206117dc5f395f51905f5260205260408120805460ff191660011790553391905f51602061177c5f395f51905f528180a4600190565b505f90565b6001600160a01b0381165f9081525f51602061179c5f395f51905f52602052604090205460ff166104b9576001600160a01b03165f8181525f51602061179c5f395f51905f5260205260408120805460ff191660011790553391907f9f2df0fed2c77648de5860a4cc508cd0818c85b8b8a1ab4ceeef8d981c8956a6905f51602061177c5f395f51905f529080a4600190565b6001600160a01b0381165f9081525f5160206117fc5f395f51905f52602052604090205460ff166104b9576001600160a01b03165f8181525f5160206117fc5f395f51905f5260205260408120805460ff191660011790553391907f65d7a28e3265b37a6474929f336521b332c1681b933f6cb9f3376673440d862a905f51602061177c5f395f51905f529080a4600190565b6001600160a01b0381165f9081525f5160206117bc5f395f51905f52602052604090205460ff166104b9576001600160a01b03165f8181525f5160206117bc5f395f51905f5260205260408120805460ff191660011790553391907f3c11d16cbaffd01df69ce1c404f6340ee057498f5f00246190ea54220576a848905f51602061177c5f395f51905f529080a460019056fe6080806040526004361015610012575f80fd5b5f3560e01c90816301ffc9a714610b0f5750806306fdde0314610a3d578063095ea7b31461099557806318160ddd1461097857806323b872dd14610940578063248a9ca31461090d578063282c51f3146108d35780632f2ff15d14610895578063313ce5671461087a57806332cb6b0c1461085457806336568abe146108105780633dd1eb61146107a15780633f4ba83a1461073b57806340c10f191461059f57806342966c681461054b5780635c975abb1461052957806370a08231146104f257806379cc6790146104825780638456cb591461042957806391d14854146103e057806395d89b41146102c5578063a217fddf146102ab578063a2309ff81461028e578063a9059cbb1461025d578063d539139314610223578063d547741f146101de578063dd62ed3e1461018e5763e63ab1e914610150575f80fd5b3461018a575f36600319011261018a5760206040517f65d7a28e3265b37a6474929f336521b332c1681b933f6cb9f3376673440d862a8152f35b5f80fd5b3461018a57604036600319011261018a576101a7610b8c565b6101af610ba2565b6001600160a01b039182165f908152600160209081526040808320949093168252928352819020549051908152f35b3461018a57604036600319011261018a576102216004356101fd610ba2565b9061021c610217825f526005602052600160405f20015490565b610e0c565b610fa3565b005b3461018a575f36600319011261018a5760206040517f9f2df0fed2c77648de5860a4cc508cd0818c85b8b8a1ab4ceeef8d981c8956a68152f35b3461018a57604036600319011261018a57610283610279610b8c565b6024359033610c7c565b602060405160018152f35b3461018a575f36600319011261018a576020600754604051908152f35b3461018a575f36600319011261018a5760206040515f8152f35b3461018a575f36600319011261018a576040515f6004548060011c906001811680156103d6575b6020831081146103c2578285529081156103a65750600114610351575b50819003601f01601f191681019067ffffffffffffffff82118183101761033d5761033982918260405282610b62565b0390f35b634e487b7160e01b5f52604160045260245ffd5b905060045f527f8a35acfbc15ff81a39ae7d344fd709f28e8600b4aa8c65c6b64bfe7fe36bd19b5f905b82821061039057506020915082010182610309565b600181602092548385880101520191019061037b565b90506020925060ff191682840152151560051b82010182610309565b634e487b7160e01b5f52602260045260245ffd5b91607f16916102ec565b3461018a57604036600319011261018a576103f9610ba2565b6004355f52600560205260405f209060018060a01b03165f52602052602060ff60405f2054166040519015158152f35b3461018a575f36600319011261018a57610441610d2e565b610449611027565b600160ff1960065416176006557f62e78cea01bee320cd4e420270b5ea74000d11b0c9f74754ebdbfc544b05a2586020604051338152a1005b3461018a57604036600319011261018a5761049b610b8c565b7ffd38818f5291bf0bb3a2a48aadc06ba8757865d1dabd804585338aab3009dcb66020602435926104ca610d9d565b6104d5843383610bd9565b6104df8482611042565b6040519384526001600160a01b031692a2005b3461018a57602036600319011261018a576001600160a01b03610513610b8c565b165f525f602052602060405f2054604051908152f35b3461018a575f36600319011261018a57602060ff600654166040519015158152f35b3461018a57602036600319011261018a57600435610567610d9d565b6105718133611042565b6040519081527ffd38818f5291bf0bb3a2a48aadc06ba8757865d1dabd804585338aab3009dcb660203392a2005b3461018a57604036600319011261018a576105b8610b8c565b335f9081527f15a28d26fa1bf736cf7edc9922607171ccb09c3c73b808e7772a3013e068a5226020526040902054602435919060ff1615610704576105fb611027565b6b033b2e3c9fd0803ce800000061061483600754610bb8565b116106ca576001600160a01b03169081156106b75760207f3f2c9d57c068687834f0de942a9babb9e5acab57d516d3480a3c16ee165a427391610655611027565b61066181600254610bb8565b600255835f525f825260405f20818154019055835f7fddf252ad1be2c89b69c2b068fc378daa952ba7f163c4a11628f55a4df523b3ef84604051858152a36106ab81600754610bb8565b600755604051908152a2005b63ec442f0560e01b5f525f60045260245ffd5b60405162461bcd60e51b815260206004820152601260248201527145786365656473206d617820737570706c7960701b6044820152606490fd5b63e2517d3f60e01b5f52336004527f9f2df0fed2c77648de5860a4cc508cd0818c85b8b8a1ab4ceeef8d981c8956a660245260445ffd5b3461018a575f36600319011261018a57610753610d2e565b60065460ff8116156107925760ff19166006557f5db9ee0a495bf2e6ff9c91a7834c1ba4fdd244a5e8aa4e537bd38aeae4b073aa6020604051338152a1005b638dfc202b60e01b5f5260045ffd5b3461018a57602036600319011261018a576107ba610b8c565b335f9081527f05b8ccbb9d4d8fb16ea74ce3c29a41f1b461fbdaff4714a0d9a8eb05499746bc602052604090205460ff16156107f95761022190610e46565b63e2517d3f60e01b5f52336004525f60245260445ffd5b3461018a57604036600319011261018a57610829610ba2565b336001600160a01b038216036108455761022190600435610fa3565b63334bd91960e11b5f5260045ffd5b3461018a575f36600319011261018a5760206040516b033b2e3c9fd0803ce80000008152f35b3461018a575f36600319011261018a57602060405160128152f35b3461018a57604036600319011261018a576102216004356108b4610ba2565b906108ce610217825f526005602052600160405f20015490565b610f17565b3461018a575f36600319011261018a5760206040517f3c11d16cbaffd01df69ce1c404f6340ee057498f5f00246190ea54220576a8488152f35b3461018a57602036600319011261018a5760206109386004355f526005602052600160405f20015490565b604051908152f35b3461018a57606036600319011261018a5761028361095c610b8c565b610964610ba2565b60443591610973833383610bd9565b610c7c565b3461018a575f36600319011261018a576020600254604051908152f35b3461018a57604036600319011261018a576109ae610b8c565b602435903315610a2a576001600160a01b0316908115610a1757335f52600160205260405f20825f526020528060405f20556040519081527f8c5be1e5ebec7d5bd14f71427d1e84f3dd0314c0f7b2291e5b200ac8c7c3b92560203392a3602060405160018152f35b634a1406b160e11b5f525f60045260245ffd5b63e602df0560e01b5f525f60045260245ffd5b3461018a575f36600319011261018a576040515f6003548060011c90600181168015610b05575b6020831081146103c2578285529081156103a65750600114610ab05750819003601f01601f191681019067ffffffffffffffff82118183101761033d5761033982918260405282610b62565b905060035f527fc2575a0e9e593c00f959f8c92f12db2869c3395a3b0502d05e2516446f71f85b5f905b828210610aef57506020915082010182610309565b6001816020925483858801015201910190610ada565b91607f1691610a64565b3461018a57602036600319011261018a576004359063ffffffff60e01b821680920361018a57602091637965db0b60e01b8114908115610b51575b5015158152f35b6301ffc9a760e01b14905083610b4a565b602060409281835280519182918282860152018484015e5f828201840152601f01601f1916010190565b600435906001600160a01b038216820361018a57565b602435906001600160a01b038216820361018a57565b91908201809211610bc557565b634e487b7160e01b5f52601160045260245ffd5b6001600160a01b039081165f818152600160209081526040808320948616835293905291909120549291905f198410610c13575b50505050565b828410610c59578015610a2a576001600160a01b03821615610a17575f52600160205260405f209060018060a01b03165f5260205260405f20910390555f808080610c0d565b508290637dc7a0d960e11b5f5260018060a01b031660045260245260445260645ffd5b6001600160a01b0316908115610d1b576001600160a01b03169182156106b757610ca4611027565b815f525f60205260405f2054818110610d0257817fddf252ad1be2c89b69c2b068fc378daa952ba7f163c4a11628f55a4df523b3ef92602092855f525f84520360405f2055845f525f825260405f20818154019055604051908152a3565b8263391434e360e21b5f5260045260245260445260645ffd5b634b637e8f60e11b5f525f60045260245ffd5b335f9081527f99f2891db7a8db76249871a02b43b68c0bb8f22ef8a3bc1034ae9375ef6b7c3c602052604090205460ff1615610d6657565b63e2517d3f60e01b5f52336004527f65d7a28e3265b37a6474929f336521b332c1681b933f6cb9f3376673440d862a60245260445ffd5b335f9081527f847f481f687befb06ed3511f1a8dcef57e83007c0147ae5047583d7056170937602052604090205460ff1615610dd557565b63e2517d3f60e01b5f52336004527f3c11d16cbaffd01df69ce1c404f6340ee057498f5f00246190ea54220576a84860245260445ffd5b5f81815260056020908152604080832033845290915290205460ff1615610e305750565b63e2517d3f60e01b5f523360045260245260445ffd5b6001600160a01b0381165f9081527f15a28d26fa1bf736cf7edc9922607171ccb09c3c73b808e7772a3013e068a522602052604090205460ff16610f12576001600160a01b03165f8181527f15a28d26fa1bf736cf7edc9922607171ccb09c3c73b808e7772a3013e068a52260205260408120805460ff191660011790553391907f9f2df0fed2c77648de5860a4cc508cd0818c85b8b8a1ab4ceeef8d981c8956a6907f2f8788117e7eff1d82e926ec794901d17c78024a50270940304540a733656f0d9080a4600190565b505f90565b5f8181526005602090815260408083206001600160a01b038616845290915290205460ff16610f9d575f8181526005602090815260408083206001600160a01b0395909516808452949091528120805460ff19166001179055339291907f2f8788117e7eff1d82e926ec794901d17c78024a50270940304540a733656f0d9080a4600190565b50505f90565b5f8181526005602090815260408083206001600160a01b038616845290915290205460ff1615610f9d575f8181526005602090815260408083206001600160a01b0395909516808452949091528120805460ff19169055339291907ff6391f5c32d9c69d2a47ea670b442974b53935d1edc7fd64eb21e047a839171b9080a4600190565b60ff6006541661103357565b63d93c066560e01b5f5260045ffd5b9091906001600160a01b03168015610d1b5761105c611027565b805f525f60205260405f20548381106110b4576020845f94957fddf252ad1be2c89b69c2b068fc378daa952ba7f163c4a11628f55a4df523b3ef938587528684520360408620558060025403600255604051908152a3565b915063391434e360e21b5f5260045260245260445260645ffdfea264697066735822122027441e58230350287fb26a24e613fdf2456b1522b07d6fd1317d82de18bced7164736f6c634300081c00332f8788117e7eff1d82e926ec794901d17c78024a50270940304540a733656f0d15a28d26fa1bf736cf7edc9922607171ccb09c3c73b808e7772a3013e068a522847f481f687befb06ed3511f1a8dcef57e83007c0147ae5047583d705617093705b8ccbb9d4d8fb16ea74ce3c29a41f1b461fbdaff4714a0d9a8eb05499746bc99f2891db7a8db76249871a02b43b68c0bb8f22ef8a3bc1034ae9375ef6b7c3c","linkReferences":{}},"methodIdentifiers":{"BURNER_ROLE()":"282c51f3","DEFAULT_ADMIN_ROLE()":"a217fddf","MAX_SUPPLY()":"32cb6b0c","MINTER_ROLE()":"d5391393","PAUSER_ROLE()":"e63ab1e9","allowance(address,address)":"dd62ed3e","approve(address,uint256)":"095ea7b3","balanceOf(address)":"70a08231","burn(uint256)":"42966c68","burnFrom(address,uint256)":"79cc6790","decimals()":"313ce567","getRoleAdmin(bytes32)":"248a9ca3","grantMinterRole(address)":"3dd1eb61","grantRole(bytes32,address)":"2f2ff15d","hasRole(bytes32,address)":"91d14854","mint(address,uint256)":"40c10f19","name()":"06fdde03","pause()":"8456cb59","paused()":"5c975abb","renounceRole(bytes32,address)":"36568abe","revokeRole(bytes32,address)":"d547741f","supportsInterface(bytes4)":"01ffc9a7","symbol()":"95d89b41","totalMinted()":"a2309ff8","totalSupply()":"18160ddd","transfer(address,uint256)":"a9059cbb","transferFrom(address,address,uint256)":"23b872dd","unpause()":"3f4ba83a"},"id":10}